{
	"contracts/Storage.Memory.Calldata.sol": {
		"DataLocationsWithStruct": {
			"abi": [
				{
					"anonymous": false,
					"inputs": [
						{
							"indexed": false,
							"internalType": "string",
							"name": "name",
							"type": "string"
						},
						{
							"indexed": false,
							"internalType": "uint256",
							"name": "age",
							"type": "uint256"
						}
					],
					"name": "storedPerson",
					"type": "event"
				},
				{
					"inputs": [
						{
							"internalType": "uint256",
							"name": "id",
							"type": "uint256"
						}
					],
					"name": "getPersonDetails",
					"outputs": [
						{
							"internalType": "string",
							"name": "",
							"type": "string"
						},
						{
							"internalType": "uint256",
							"name": "",
							"type": "uint256"
						}
					],
					"stateMutability": "view",
					"type": "function"
				},
				{
					"inputs": [
						{
							"internalType": "uint256",
							"name": "",
							"type": "uint256"
						}
					],
					"name": "people",
					"outputs": [
						{
							"internalType": "string",
							"name": "name",
							"type": "string"
						},
						{
							"internalType": "uint256",
							"name": "age",
							"type": "uint256"
						}
					],
					"stateMutability": "view",
					"type": "function"
				},
				{
					"inputs": [
						{
							"internalType": "uint256",
							"name": "id",
							"type": "uint256"
						},
						{
							"internalType": "string",
							"name": "_name",
							"type": "string"
						},
						{
							"internalType": "uint256",
							"name": "_age",
							"type": "uint256"
						}
					],
					"name": "storePerson",
					"outputs": [],
					"stateMutability": "nonpayable",
					"type": "function"
				},
				{
					"inputs": [
						{
							"internalType": "uint256",
							"name": "id",
							"type": "uint256"
						},
						{
							"internalType": "uint256",
							"name": "newAge",
							"type": "uint256"
						}
					],
					"name": "updateAge",
					"outputs": [],
					"stateMutability": "nonpayable",
					"type": "function"
				}
			],
			"devdoc": {
				"kind": "dev",
				"methods": {},
				"version": 1
			},
			"evm": {
				"assembly": "    /* \"contracts/Storage.Memory.Calldata.sol\":1904:2886  contract DataLocationsWithStruct {... */\n  mstore(0x40, 0x80)\n  callvalue\n  dup1\n  iszero\n  tag_1\n  jumpi\n  0x00\n  dup1\n  revert\ntag_1:\n  pop\n  dataSize(sub_0)\n  dup1\n  dataOffset(sub_0)\n  0x00\n  codecopy\n  0x00\n  return\nstop\n\nsub_0: assembly {\n        /* \"contracts/Storage.Memory.Calldata.sol\":1904:2886  contract DataLocationsWithStruct {... */\n      mstore(0x40, 0x80)\n      callvalue\n      dup1\n      iszero\n      tag_1\n      jumpi\n      0x00\n      dup1\n      revert\n    tag_1:\n      pop\n      jumpi(tag_2, lt(calldatasize, 0x04))\n      shr(0xe0, calldataload(0x00))\n      dup1\n      0x3b9d6ae6\n      eq\n      tag_3\n      jumpi\n      dup1\n      0x60981705\n      eq\n      tag_4\n      jumpi\n      dup1\n      0x819aa311\n      eq\n      tag_5\n      jumpi\n      dup1\n      0x9e7a13ad\n      eq\n      tag_6\n      jumpi\n    tag_2:\n      0x00\n      dup1\n      revert\n        /* \"contracts/Storage.Memory.Calldata.sol\":2201:2404  function storePerson(uint256 id, string memory _name, uint256 _age) public {... */\n    tag_3:\n      tag_7\n      0x04\n      dup1\n      calldatasize\n      sub\n      dup2\n      add\n      swap1\n      tag_8\n      swap2\n      swap1\n      tag_9\n      jump\t// in\n    tag_8:\n      tag_10\n      jump\t// in\n    tag_7:\n      stop\n        /* \"contracts/Storage.Memory.Calldata.sol\":2432:2688  function getPersonDetails(uint256 id) public view returns (string memory, uint256) {... */\n    tag_4:\n      tag_11\n      0x04\n      dup1\n      calldatasize\n      sub\n      dup2\n      add\n      swap1\n      tag_12\n      swap2\n      swap1\n      tag_13\n      jump\t// in\n    tag_12:\n      tag_14\n      jump\t// in\n    tag_11:\n      mload(0x40)\n      tag_15\n      swap3\n      swap2\n      swap1\n      tag_16\n      jump\t// in\n    tag_15:\n      mload(0x40)\n      dup1\n      swap2\n      sub\n      swap1\n      return\n        /* \"contracts/Storage.Memory.Calldata.sol\":2727:2884  function updateAge(uint256 id, uint256 newAge) public {... */\n    tag_5:\n      tag_17\n      0x04\n      dup1\n      calldatasize\n      sub\n      dup2\n      add\n      swap1\n      tag_18\n      swap2\n      swap1\n      tag_19\n      jump\t// in\n    tag_18:\n      tag_20\n      jump\t// in\n    tag_17:\n      stop\n        /* \"contracts/Storage.Memory.Calldata.sol\":2024:2064  mapping(uint256 => Person) public people */\n    tag_6:\n      tag_21\n      0x04\n      dup1\n      calldatasize\n      sub\n      dup2\n      add\n      swap1\n      tag_22\n      swap2\n      swap1\n      tag_13\n      jump\t// in\n    tag_22:\n      tag_23\n      jump\t// in\n    tag_21:\n      mload(0x40)\n      tag_24\n      swap3\n      swap2\n      swap1\n      tag_16\n      jump\t// in\n    tag_24:\n      mload(0x40)\n      dup1\n      swap2\n      sub\n      swap1\n      return\n        /* \"contracts/Storage.Memory.Calldata.sol\":2201:2404  function storePerson(uint256 id, string memory _name, uint256 _age) public {... */\n    tag_10:\n        /* \"contracts/Storage.Memory.Calldata.sol\":2295:2314  Person(_name, _age) */\n      mload(0x40)\n      dup1\n      0x40\n      add\n      0x40\n      mstore\n      dup1\n        /* \"contracts/Storage.Memory.Calldata.sol\":2302:2307  _name */\n      dup4\n        /* \"contracts/Storage.Memory.Calldata.sol\":2295:2314  Person(_name, _age) */\n      dup2\n      mstore\n      0x20\n      add\n        /* \"contracts/Storage.Memory.Calldata.sol\":2309:2313  _age */\n      dup3\n        /* \"contracts/Storage.Memory.Calldata.sol\":2295:2314  Person(_name, _age) */\n      dup2\n      mstore\n      pop\n        /* \"contracts/Storage.Memory.Calldata.sol\":2282:2288  people */\n      0x00\n        /* \"contracts/Storage.Memory.Calldata.sol\":2282:2292  people[id] */\n      dup1\n        /* \"contracts/Storage.Memory.Calldata.sol\":2289:2291  id */\n      dup6\n        /* \"contracts/Storage.Memory.Calldata.sol\":2282:2292  people[id] */\n      dup2\n      mstore\n      0x20\n      add\n      swap1\n      dup2\n      mstore\n      0x20\n      add\n      0x00\n      keccak256\n        /* \"contracts/Storage.Memory.Calldata.sol\":2282:2314  people[id] = Person(_name, _age) */\n      0x00\n      dup3\n      add\n      mload\n      dup2\n      0x00\n      add\n      swap1\n      dup2\n      tag_26\n      swap2\n      swap1\n      tag_27\n      jump\t// in\n    tag_26:\n      pop\n      0x20\n      dup3\n      add\n      mload\n      dup2\n      0x01\n      add\n      sstore\n      swap1\n      pop\n      pop\n        /* \"contracts/Storage.Memory.Calldata.sol\":2374:2399  storedPerson(_name, _age) */\n      0x08c348257250b9a91c627c3db87873515ba7259b31d758fdad8650a2230a3395\n        /* \"contracts/Storage.Memory.Calldata.sol\":2387:2392  _name */\n      dup3\n        /* \"contracts/Storage.Memory.Calldata.sol\":2394:2398  _age */\n      dup3\n        /* \"contracts/Storage.Memory.Calldata.sol\":2374:2399  storedPerson(_name, _age) */\n      mload(0x40)\n      tag_28\n      swap3\n      swap2\n      swap1\n      tag_16\n      jump\t// in\n    tag_28:\n      mload(0x40)\n      dup1\n      swap2\n      sub\n      swap1\n      log1\n        /* \"contracts/Storage.Memory.Calldata.sol\":2201:2404  function storePerson(uint256 id, string memory _name, uint256 _age) public {... */\n      pop\n      pop\n      pop\n      jump\t// out\n        /* \"contracts/Storage.Memory.Calldata.sol\":2432:2688  function getPersonDetails(uint256 id) public view returns (string memory, uint256) {... */\n    tag_14:\n        /* \"contracts/Storage.Memory.Calldata.sol\":2491:2504  string memory */\n      0x60\n        /* \"contracts/Storage.Memory.Calldata.sol\":2506:2513  uint256 */\n      0x00\n        /* \"contracts/Storage.Memory.Calldata.sol\":2521:2541  Person memory person */\n      dup1\n        /* \"contracts/Storage.Memory.Calldata.sol\":2544:2550  people */\n      0x00\n        /* \"contracts/Storage.Memory.Calldata.sol\":2544:2554  people[id] */\n      dup1\n        /* \"contracts/Storage.Memory.Calldata.sol\":2551:2553  id */\n      dup6\n        /* \"contracts/Storage.Memory.Calldata.sol\":2544:2554  people[id] */\n      dup2\n      mstore\n      0x20\n      add\n      swap1\n      dup2\n      mstore\n      0x20\n      add\n      0x00\n      keccak256\n        /* \"contracts/Storage.Memory.Calldata.sol\":2521:2554  Person memory person = people[id] */\n      mload(0x40)\n      dup1\n      0x40\n      add\n      0x40\n      mstore\n      swap1\n      dup2\n      0x00\n      dup3\n      add\n      dup1\n      sload\n      tag_30\n      swap1\n      tag_31\n      jump\t// in\n    tag_30:\n      dup1\n      0x1f\n      add\n      0x20\n      dup1\n      swap2\n      div\n      mul\n      0x20\n      add\n      mload(0x40)\n      swap1\n      dup2\n      add\n      0x40\n      mstore\n      dup1\n      swap3\n      swap2\n      swap1\n      dup2\n      dup2\n      mstore\n      0x20\n      add\n      dup3\n      dup1\n      sload\n      tag_32\n      swap1\n      tag_31\n      jump\t// in\n    tag_32:\n      dup1\n      iszero\n      tag_33\n      jumpi\n      dup1\n      0x1f\n      lt\n      tag_34\n      jumpi\n      0x0100\n      dup1\n      dup4\n      sload\n      div\n      mul\n      dup4\n      mstore\n      swap2\n      0x20\n      add\n      swap2\n      jump(tag_33)\n    tag_34:\n      dup3\n      add\n      swap2\n      swap1\n      0x00\n      mstore\n      keccak256(0x00, 0x20)\n      swap1\n    tag_35:\n      dup2\n      sload\n      dup2\n      mstore\n      swap1\n      0x01\n      add\n      swap1\n      0x20\n      add\n      dup1\n      dup4\n      gt\n      tag_35\n      jumpi\n      dup3\n      swap1\n      sub\n      0x1f\n      and\n      dup3\n      add\n      swap2\n    tag_33:\n      pop\n      pop\n      pop\n      pop\n      pop\n      dup2\n      mstore\n      0x20\n      add\n      0x01\n      dup3\n      add\n      sload\n      dup2\n      mstore\n      pop\n      pop\n      swap1\n      pop\n        /* \"contracts/Storage.Memory.Calldata.sol\":2621:2627  person */\n      dup1\n        /* \"contracts/Storage.Memory.Calldata.sol\":2621:2632  person.name */\n      0x00\n      add\n      mload\n        /* \"contracts/Storage.Memory.Calldata.sol\":2634:2640  person */\n      dup2\n        /* \"contracts/Storage.Memory.Calldata.sol\":2634:2644  person.age */\n      0x20\n      add\n      mload\n        /* \"contracts/Storage.Memory.Calldata.sol\":2613:2645  return (person.name, person.age) */\n      swap3\n      pop\n      swap3\n      pop\n      pop\n        /* \"contracts/Storage.Memory.Calldata.sol\":2432:2688  function getPersonDetails(uint256 id) public view returns (string memory, uint256) {... */\n      swap2\n      pop\n      swap2\n      jump\t// out\n        /* \"contracts/Storage.Memory.Calldata.sol\":2727:2884  function updateAge(uint256 id, uint256 newAge) public {... */\n    tag_20:\n      pop\n      pop\n      jump\t// out\n        /* \"contracts/Storage.Memory.Calldata.sol\":2024:2064  mapping(uint256 => Person) public people */\n    tag_23:\n      mstore(0x20, 0x00)\n      dup1\n      0x00\n      mstore\n      keccak256(0x00, 0x40)\n      0x00\n      swap2\n      pop\n      swap1\n      pop\n      dup1\n      0x00\n      add\n      dup1\n      sload\n      tag_37\n      swap1\n      tag_31\n      jump\t// in\n    tag_37:\n      dup1\n      0x1f\n      add\n      0x20\n      dup1\n      swap2\n      div\n      mul\n      0x20\n      add\n      mload(0x40)\n      swap1\n      dup2\n      add\n      0x40\n      mstore\n      dup1\n      swap3\n      swap2\n      swap1\n      dup2\n      dup2\n      mstore\n      0x20\n      add\n      dup3\n      dup1\n      sload\n      tag_38\n      swap1\n      tag_31\n      jump\t// in\n    tag_38:\n      dup1\n      iszero\n      tag_39\n      jumpi\n      dup1\n      0x1f\n      lt\n      tag_40\n      jumpi\n      0x0100\n      dup1\n      dup4\n      sload\n      div\n      mul\n      dup4\n      mstore\n      swap2\n      0x20\n      add\n      swap2\n      jump(tag_39)\n    tag_40:\n      dup3\n      add\n      swap2\n      swap1\n      0x00\n      mstore\n      keccak256(0x00, 0x20)\n      swap1\n    tag_41:\n      dup2\n      sload\n      dup2\n      mstore\n      swap1\n      0x01\n      add\n      swap1\n      0x20\n      add\n      dup1\n      dup4\n      gt\n      tag_41\n      jumpi\n      dup3\n      swap1\n      sub\n      0x1f\n      and\n      dup3\n      add\n      swap2\n    tag_39:\n      pop\n      pop\n      pop\n      pop\n      pop\n      swap1\n      dup1\n      0x01\n      add\n      sload\n      swap1\n      pop\n      dup3\n      jump\t// out\n        /* \"#utility.yul\":7:82   */\n    tag_42:\n        /* \"#utility.yul\":40:46   */\n      0x00\n        /* \"#utility.yul\":73:75   */\n      0x40\n        /* \"#utility.yul\":67:76   */\n      mload\n        /* \"#utility.yul\":57:76   */\n      swap1\n      pop\n        /* \"#utility.yul\":7:82   */\n      swap1\n      jump\t// out\n        /* \"#utility.yul\":88:205   */\n    tag_43:\n        /* \"#utility.yul\":197:198   */\n      0x00\n        /* \"#utility.yul\":194:195   */\n      dup1\n        /* \"#utility.yul\":187:199   */\n      revert\n        /* \"#utility.yul\":211:328   */\n    tag_44:\n        /* \"#utility.yul\":320:321   */\n      0x00\n        /* \"#utility.yul\":317:318   */\n      dup1\n        /* \"#utility.yul\":310:322   */\n      revert\n        /* \"#utility.yul\":334:411   */\n    tag_45:\n        /* \"#utility.yul\":371:378   */\n      0x00\n        /* \"#utility.yul\":400:405   */\n      dup2\n        /* \"#utility.yul\":389:405   */\n      swap1\n      pop\n        /* \"#utility.yul\":334:411   */\n      swap2\n      swap1\n      pop\n      jump\t// out\n        /* \"#utility.yul\":417:539   */\n    tag_46:\n        /* \"#utility.yul\":490:514   */\n      tag_85\n        /* \"#utility.yul\":508:513   */\n      dup2\n        /* \"#utility.yul\":490:514   */\n      tag_45\n      jump\t// in\n    tag_85:\n        /* \"#utility.yul\":483:488   */\n      dup2\n        /* \"#utility.yul\":480:515   */\n      eq\n        /* \"#utility.yul\":470:533   */\n      tag_86\n      jumpi\n        /* \"#utility.yul\":529:530   */\n      0x00\n        /* \"#utility.yul\":526:527   */\n      dup1\n        /* \"#utility.yul\":519:531   */\n      revert\n        /* \"#utility.yul\":470:533   */\n    tag_86:\n        /* \"#utility.yul\":417:539   */\n      pop\n      jump\t// out\n        /* \"#utility.yul\":545:684   */\n    tag_47:\n        /* \"#utility.yul\":591:596   */\n      0x00\n        /* \"#utility.yul\":629:635   */\n      dup2\n        /* \"#utility.yul\":616:636   */\n      calldataload\n        /* \"#utility.yul\":607:636   */\n      swap1\n      pop\n        /* \"#utility.yul\":645:678   */\n      tag_88\n        /* \"#utility.yul\":672:677   */\n      dup2\n        /* \"#utility.yul\":645:678   */\n      tag_46\n      jump\t// in\n    tag_88:\n        /* \"#utility.yul\":545:684   */\n      swap3\n      swap2\n      pop\n      pop\n      jump\t// out\n        /* \"#utility.yul\":690:807   */\n    tag_48:\n        /* \"#utility.yul\":799:800   */\n      0x00\n        /* \"#utility.yul\":796:797   */\n      dup1\n        /* \"#utility.yul\":789:801   */\n      revert\n        /* \"#utility.yul\":813:930   */\n    tag_49:\n        /* \"#utility.yul\":922:923   */\n      0x00\n        /* \"#utility.yul\":919:920   */\n      dup1\n        /* \"#utility.yul\":912:924   */\n      revert\n        /* \"#utility.yul\":936:1038   */\n    tag_50:\n        /* \"#utility.yul\":977:983   */\n      0x00\n        /* \"#utility.yul\":1028:1030   */\n      0x1f\n        /* \"#utility.yul\":1024:1031   */\n      not\n        /* \"#utility.yul\":1019:1021   */\n      0x1f\n        /* \"#utility.yul\":1012:1017   */\n      dup4\n        /* \"#utility.yul\":1008:1022   */\n      add\n        /* \"#utility.yul\":1004:1032   */\n      and\n        /* \"#utility.yul\":994:1032   */\n      swap1\n      pop\n        /* \"#utility.yul\":936:1038   */\n      swap2\n      swap1\n      pop\n      jump\t// out\n        /* \"#utility.yul\":1044:1224   */\n    tag_51:\n        /* \"#utility.yul\":1092:1169   */\n      0x4e487b7100000000000000000000000000000000000000000000000000000000\n        /* \"#utility.yul\":1089:1090   */\n      0x00\n        /* \"#utility.yul\":1082:1170   */\n      mstore\n        /* \"#utility.yul\":1189:1193   */\n      0x41\n        /* \"#utility.yul\":1186:1187   */\n      0x04\n        /* \"#utility.yul\":1179:1194   */\n      mstore\n        /* \"#utility.yul\":1213:1217   */\n      0x24\n        /* \"#utility.yul\":1210:1211   */\n      0x00\n        /* \"#utility.yul\":1203:1218   */\n      revert\n        /* \"#utility.yul\":1230:1511   */\n    tag_52:\n        /* \"#utility.yul\":1313:1340   */\n      tag_94\n        /* \"#utility.yul\":1335:1339   */\n      dup3\n        /* \"#utility.yul\":1313:1340   */\n      tag_50\n      jump\t// in\n    tag_94:\n        /* \"#utility.yul\":1305:1311   */\n      dup2\n        /* \"#utility.yul\":1301:1341   */\n      add\n        /* \"#utility.yul\":1443:1449   */\n      dup2\n        /* \"#utility.yul\":1431:1441   */\n      dup2\n        /* \"#utility.yul\":1428:1450   */\n      lt\n        /* \"#utility.yul\":1407:1425   */\n      0xffffffffffffffff\n        /* \"#utility.yul\":1395:1405   */\n      dup3\n        /* \"#utility.yul\":1392:1426   */\n      gt\n        /* \"#utility.yul\":1389:1451   */\n      or\n        /* \"#utility.yul\":1386:1474   */\n      iszero\n      tag_95\n      jumpi\n        /* \"#utility.yul\":1454:1472   */\n      tag_96\n      tag_51\n      jump\t// in\n    tag_96:\n        /* \"#utility.yul\":1386:1474   */\n    tag_95:\n        /* \"#utility.yul\":1494:1504   */\n      dup1\n        /* \"#utility.yul\":1490:1492   */\n      0x40\n        /* \"#utility.yul\":1483:1505   */\n      mstore\n        /* \"#utility.yul\":1273:1511   */\n      pop\n        /* \"#utility.yul\":1230:1511   */\n      pop\n      pop\n      jump\t// out\n        /* \"#utility.yul\":1517:1646   */\n    tag_53:\n        /* \"#utility.yul\":1551:1557   */\n      0x00\n        /* \"#utility.yul\":1578:1598   */\n      tag_98\n      tag_42\n      jump\t// in\n    tag_98:\n        /* \"#utility.yul\":1568:1598   */\n      swap1\n      pop\n        /* \"#utility.yul\":1607:1640   */\n      tag_99\n        /* \"#utility.yul\":1635:1639   */\n      dup3\n        /* \"#utility.yul\":1627:1633   */\n      dup3\n        /* \"#utility.yul\":1607:1640   */\n      tag_52\n      jump\t// in\n    tag_99:\n        /* \"#utility.yul\":1517:1646   */\n      swap2\n      swap1\n      pop\n      jump\t// out\n        /* \"#utility.yul\":1652:1960   */\n    tag_54:\n        /* \"#utility.yul\":1714:1718   */\n      0x00\n        /* \"#utility.yul\":1804:1822   */\n      0xffffffffffffffff\n        /* \"#utility.yul\":1796:1802   */\n      dup3\n        /* \"#utility.yul\":1793:1823   */\n      gt\n        /* \"#utility.yul\":1790:1846   */\n      iszero\n      tag_101\n      jumpi\n        /* \"#utility.yul\":1826:1844   */\n      tag_102\n      tag_51\n      jump\t// in\n    tag_102:\n        /* \"#utility.yul\":1790:1846   */\n    tag_101:\n        /* \"#utility.yul\":1864:1893   */\n      tag_103\n        /* \"#utility.yul\":1886:1892   */\n      dup3\n        /* \"#utility.yul\":1864:1893   */\n      tag_50\n      jump\t// in\n    tag_103:\n        /* \"#utility.yul\":1856:1893   */\n      swap1\n      pop\n        /* \"#utility.yul\":1948:1952   */\n      0x20\n        /* \"#utility.yul\":1942:1946   */\n      dup2\n        /* \"#utility.yul\":1938:1953   */\n      add\n        /* \"#utility.yul\":1930:1953   */\n      swap1\n      pop\n        /* \"#utility.yul\":1652:1960   */\n      swap2\n      swap1\n      pop\n      jump\t// out\n        /* \"#utility.yul\":1966:2114   */\n    tag_55:\n        /* \"#utility.yul\":2064:2070   */\n      dup3\n        /* \"#utility.yul\":2059:2062   */\n      dup2\n        /* \"#utility.yul\":2054:2057   */\n      dup4\n        /* \"#utility.yul\":2041:2071   */\n      calldatacopy\n        /* \"#utility.yul\":2105:2106   */\n      0x00\n        /* \"#utility.yul\":2096:2102   */\n      dup4\n        /* \"#utility.yul\":2091:2094   */\n      dup4\n        /* \"#utility.yul\":2087:2103   */\n      add\n        /* \"#utility.yul\":2080:2107   */\n      mstore\n        /* \"#utility.yul\":1966:2114   */\n      pop\n      pop\n      pop\n      jump\t// out\n        /* \"#utility.yul\":2120:2545   */\n    tag_56:\n        /* \"#utility.yul\":2198:2203   */\n      0x00\n        /* \"#utility.yul\":2223:2289   */\n      tag_106\n        /* \"#utility.yul\":2239:2288   */\n      tag_107\n        /* \"#utility.yul\":2281:2287   */\n      dup5\n        /* \"#utility.yul\":2239:2288   */\n      tag_54\n      jump\t// in\n    tag_107:\n        /* \"#utility.yul\":2223:2289   */\n      tag_53\n      jump\t// in\n    tag_106:\n        /* \"#utility.yul\":2214:2289   */\n      swap1\n      pop\n        /* \"#utility.yul\":2312:2318   */\n      dup3\n        /* \"#utility.yul\":2305:2310   */\n      dup2\n        /* \"#utility.yul\":2298:2319   */\n      mstore\n        /* \"#utility.yul\":2350:2354   */\n      0x20\n        /* \"#utility.yul\":2343:2348   */\n      dup2\n        /* \"#utility.yul\":2339:2355   */\n      add\n        /* \"#utility.yul\":2388:2391   */\n      dup5\n        /* \"#utility.yul\":2379:2385   */\n      dup5\n        /* \"#utility.yul\":2374:2377   */\n      dup5\n        /* \"#utility.yul\":2370:2386   */\n      add\n        /* \"#utility.yul\":2367:2392   */\n      gt\n        /* \"#utility.yul\":2364:2476   */\n      iszero\n      tag_108\n      jumpi\n        /* \"#utility.yul\":2395:2474   */\n      tag_109\n      tag_49\n      jump\t// in\n    tag_109:\n        /* \"#utility.yul\":2364:2476   */\n    tag_108:\n        /* \"#utility.yul\":2485:2539   */\n      tag_110\n        /* \"#utility.yul\":2532:2538   */\n      dup5\n        /* \"#utility.yul\":2527:2530   */\n      dup3\n        /* \"#utility.yul\":2522:2525   */\n      dup6\n        /* \"#utility.yul\":2485:2539   */\n      tag_55\n      jump\t// in\n    tag_110:\n        /* \"#utility.yul\":2204:2545   */\n      pop\n        /* \"#utility.yul\":2120:2545   */\n      swap4\n      swap3\n      pop\n      pop\n      pop\n      jump\t// out\n        /* \"#utility.yul\":2565:2905   */\n    tag_57:\n        /* \"#utility.yul\":2621:2626   */\n      0x00\n        /* \"#utility.yul\":2670:2673   */\n      dup3\n        /* \"#utility.yul\":2663:2667   */\n      0x1f\n        /* \"#utility.yul\":2655:2661   */\n      dup4\n        /* \"#utility.yul\":2651:2668   */\n      add\n        /* \"#utility.yul\":2647:2674   */\n      slt\n        /* \"#utility.yul\":2637:2759   */\n      tag_112\n      jumpi\n        /* \"#utility.yul\":2678:2757   */\n      tag_113\n      tag_48\n      jump\t// in\n    tag_113:\n        /* \"#utility.yul\":2637:2759   */\n    tag_112:\n        /* \"#utility.yul\":2795:2801   */\n      dup2\n        /* \"#utility.yul\":2782:2802   */\n      calldataload\n        /* \"#utility.yul\":2820:2899   */\n      tag_114\n        /* \"#utility.yul\":2895:2898   */\n      dup5\n        /* \"#utility.yul\":2887:2893   */\n      dup3\n        /* \"#utility.yul\":2880:2884   */\n      0x20\n        /* \"#utility.yul\":2872:2878   */\n      dup7\n        /* \"#utility.yul\":2868:2885   */\n      add\n        /* \"#utility.yul\":2820:2899   */\n      tag_56\n      jump\t// in\n    tag_114:\n        /* \"#utility.yul\":2811:2899   */\n      swap2\n      pop\n        /* \"#utility.yul\":2627:2905   */\n      pop\n        /* \"#utility.yul\":2565:2905   */\n      swap3\n      swap2\n      pop\n      pop\n      jump\t// out\n        /* \"#utility.yul\":2911:3710   */\n    tag_9:\n        /* \"#utility.yul\":2998:3004   */\n      0x00\n        /* \"#utility.yul\":3006:3012   */\n      dup1\n        /* \"#utility.yul\":3014:3020   */\n      0x00\n        /* \"#utility.yul\":3063:3065   */\n      0x60\n        /* \"#utility.yul\":3051:3060   */\n      dup5\n        /* \"#utility.yul\":3042:3049   */\n      dup7\n        /* \"#utility.yul\":3038:3061   */\n      sub\n        /* \"#utility.yul\":3034:3066   */\n      slt\n        /* \"#utility.yul\":3031:3150   */\n      iszero\n      tag_116\n      jumpi\n        /* \"#utility.yul\":3069:3148   */\n      tag_117\n      tag_43\n      jump\t// in\n    tag_117:\n        /* \"#utility.yul\":3031:3150   */\n    tag_116:\n        /* \"#utility.yul\":3189:3190   */\n      0x00\n        /* \"#utility.yul\":3214:3267   */\n      tag_118\n        /* \"#utility.yul\":3259:3266   */\n      dup7\n        /* \"#utility.yul\":3250:3256   */\n      dup3\n        /* \"#utility.yul\":3239:3248   */\n      dup8\n        /* \"#utility.yul\":3235:3257   */\n      add\n        /* \"#utility.yul\":3214:3267   */\n      tag_47\n      jump\t// in\n    tag_118:\n        /* \"#utility.yul\":3204:3267   */\n      swap4\n      pop\n        /* \"#utility.yul\":3160:3277   */\n      pop\n        /* \"#utility.yul\":3344:3346   */\n      0x20\n        /* \"#utility.yul\":3333:3342   */\n      dup5\n        /* \"#utility.yul\":3329:3347   */\n      add\n        /* \"#utility.yul\":3316:3348   */\n      calldataload\n        /* \"#utility.yul\":3375:3393   */\n      0xffffffffffffffff\n        /* \"#utility.yul\":3367:3373   */\n      dup2\n        /* \"#utility.yul\":3364:3394   */\n      gt\n        /* \"#utility.yul\":3361:3478   */\n      iszero\n      tag_119\n      jumpi\n        /* \"#utility.yul\":3397:3476   */\n      tag_120\n      tag_44\n      jump\t// in\n    tag_120:\n        /* \"#utility.yul\":3361:3478   */\n    tag_119:\n        /* \"#utility.yul\":3502:3565   */\n      tag_121\n        /* \"#utility.yul\":3557:3564   */\n      dup7\n        /* \"#utility.yul\":3548:3554   */\n      dup3\n        /* \"#utility.yul\":3537:3546   */\n      dup8\n        /* \"#utility.yul\":3533:3555   */\n      add\n        /* \"#utility.yul\":3502:3565   */\n      tag_57\n      jump\t// in\n    tag_121:\n        /* \"#utility.yul\":3492:3565   */\n      swap3\n      pop\n        /* \"#utility.yul\":3287:3575   */\n      pop\n        /* \"#utility.yul\":3614:3616   */\n      0x40\n        /* \"#utility.yul\":3640:3693   */\n      tag_122\n        /* \"#utility.yul\":3685:3692   */\n      dup7\n        /* \"#utility.yul\":3676:3682   */\n      dup3\n        /* \"#utility.yul\":3665:3674   */\n      dup8\n        /* \"#utility.yul\":3661:3683   */\n      add\n        /* \"#utility.yul\":3640:3693   */\n      tag_47\n      jump\t// in\n    tag_122:\n        /* \"#utility.yul\":3630:3693   */\n      swap2\n      pop\n        /* \"#utility.yul\":3585:3703   */\n      pop\n        /* \"#utility.yul\":2911:3710   */\n      swap3\n      pop\n      swap3\n      pop\n      swap3\n      jump\t// out\n        /* \"#utility.yul\":3716:4045   */\n    tag_13:\n        /* \"#utility.yul\":3775:3781   */\n      0x00\n        /* \"#utility.yul\":3824:3826   */\n      0x20\n        /* \"#utility.yul\":3812:3821   */\n      dup3\n        /* \"#utility.yul\":3803:3810   */\n      dup5\n        /* \"#utility.yul\":3799:3822   */\n      sub\n        /* \"#utility.yul\":3795:3827   */\n      slt\n        /* \"#utility.yul\":3792:3911   */\n      iszero\n      tag_124\n      jumpi\n        /* \"#utility.yul\":3830:3909   */\n      tag_125\n      tag_43\n      jump\t// in\n    tag_125:\n        /* \"#utility.yul\":3792:3911   */\n    tag_124:\n        /* \"#utility.yul\":3950:3951   */\n      0x00\n        /* \"#utility.yul\":3975:4028   */\n      tag_126\n        /* \"#utility.yul\":4020:4027   */\n      dup5\n        /* \"#utility.yul\":4011:4017   */\n      dup3\n        /* \"#utility.yul\":4000:4009   */\n      dup6\n        /* \"#utility.yul\":3996:4018   */\n      add\n        /* \"#utility.yul\":3975:4028   */\n      tag_47\n      jump\t// in\n    tag_126:\n        /* \"#utility.yul\":3965:4028   */\n      swap2\n      pop\n        /* \"#utility.yul\":3921:4038   */\n      pop\n        /* \"#utility.yul\":3716:4045   */\n      swap3\n      swap2\n      pop\n      pop\n      jump\t// out\n        /* \"#utility.yul\":4051:4150   */\n    tag_58:\n        /* \"#utility.yul\":4103:4109   */\n      0x00\n        /* \"#utility.yul\":4137:4142   */\n      dup2\n        /* \"#utility.yul\":4131:4143   */\n      mload\n        /* \"#utility.yul\":4121:4143   */\n      swap1\n      pop\n        /* \"#utility.yul\":4051:4150   */\n      swap2\n      swap1\n      pop\n      jump\t// out\n        /* \"#utility.yul\":4156:4325   */\n    tag_59:\n        /* \"#utility.yul\":4240:4251   */\n      0x00\n        /* \"#utility.yul\":4274:4280   */\n      dup3\n        /* \"#utility.yul\":4269:4272   */\n      dup3\n        /* \"#utility.yul\":4262:4281   */\n      mstore\n        /* \"#utility.yul\":4314:4318   */\n      0x20\n        /* \"#utility.yul\":4309:4312   */\n      dup3\n        /* \"#utility.yul\":4305:4319   */\n      add\n        /* \"#utility.yul\":4290:4319   */\n      swap1\n      pop\n        /* \"#utility.yul\":4156:4325   */\n      swap3\n      swap2\n      pop\n      pop\n      jump\t// out\n        /* \"#utility.yul\":4331:4470   */\n    tag_60:\n        /* \"#utility.yul\":4420:4426   */\n      dup3\n        /* \"#utility.yul\":4415:4418   */\n      dup2\n        /* \"#utility.yul\":4410:4413   */\n      dup4\n        /* \"#utility.yul\":4404:4427   */\n      mcopy\n        /* \"#utility.yul\":4461:4462   */\n      0x00\n        /* \"#utility.yul\":4452:4458   */\n      dup4\n        /* \"#utility.yul\":4447:4450   */\n      dup4\n        /* \"#utility.yul\":4443:4459   */\n      add\n        /* \"#utility.yul\":4436:4463   */\n      mstore\n        /* \"#utility.yul\":4331:4470   */\n      pop\n      pop\n      pop\n      jump\t// out\n        /* \"#utility.yul\":4476:4853   */\n    tag_61:\n        /* \"#utility.yul\":4564:4567   */\n      0x00\n        /* \"#utility.yul\":4592:4631   */\n      tag_131\n        /* \"#utility.yul\":4625:4630   */\n      dup3\n        /* \"#utility.yul\":4592:4631   */\n      tag_58\n      jump\t// in\n    tag_131:\n        /* \"#utility.yul\":4647:4718   */\n      tag_132\n        /* \"#utility.yul\":4711:4717   */\n      dup2\n        /* \"#utility.yul\":4706:4709   */\n      dup6\n        /* \"#utility.yul\":4647:4718   */\n      tag_59\n      jump\t// in\n    tag_132:\n        /* \"#utility.yul\":4640:4718   */\n      swap4\n      pop\n        /* \"#utility.yul\":4727:4792   */\n      tag_133\n        /* \"#utility.yul\":4785:4791   */\n      dup2\n        /* \"#utility.yul\":4780:4783   */\n      dup6\n        /* \"#utility.yul\":4773:4777   */\n      0x20\n        /* \"#utility.yul\":4766:4771   */\n      dup7\n        /* \"#utility.yul\":4762:4778   */\n      add\n        /* \"#utility.yul\":4727:4792   */\n      tag_60\n      jump\t// in\n    tag_133:\n        /* \"#utility.yul\":4817:4846   */\n      tag_134\n        /* \"#utility.yul\":4839:4845   */\n      dup2\n        /* \"#utility.yul\":4817:4846   */\n      tag_50\n      jump\t// in\n    tag_134:\n        /* \"#utility.yul\":4812:4815   */\n      dup5\n        /* \"#utility.yul\":4808:4847   */\n      add\n        /* \"#utility.yul\":4801:4847   */\n      swap2\n      pop\n        /* \"#utility.yul\":4568:4853   */\n      pop\n        /* \"#utility.yul\":4476:4853   */\n      swap3\n      swap2\n      pop\n      pop\n      jump\t// out\n        /* \"#utility.yul\":4859:4977   */\n    tag_62:\n        /* \"#utility.yul\":4946:4970   */\n      tag_136\n        /* \"#utility.yul\":4964:4969   */\n      dup2\n        /* \"#utility.yul\":4946:4970   */\n      tag_45\n      jump\t// in\n    tag_136:\n        /* \"#utility.yul\":4941:4944   */\n      dup3\n        /* \"#utility.yul\":4934:4971   */\n      mstore\n        /* \"#utility.yul\":4859:4977   */\n      pop\n      pop\n      jump\t// out\n        /* \"#utility.yul\":4983:5406   */\n    tag_16:\n        /* \"#utility.yul\":5124:5128   */\n      0x00\n        /* \"#utility.yul\":5162:5164   */\n      0x40\n        /* \"#utility.yul\":5151:5160   */\n      dup3\n        /* \"#utility.yul\":5147:5165   */\n      add\n        /* \"#utility.yul\":5139:5165   */\n      swap1\n      pop\n        /* \"#utility.yul\":5211:5220   */\n      dup2\n        /* \"#utility.yul\":5205:5209   */\n      dup2\n        /* \"#utility.yul\":5201:5221   */\n      sub\n        /* \"#utility.yul\":5197:5198   */\n      0x00\n        /* \"#utility.yul\":5186:5195   */\n      dup4\n        /* \"#utility.yul\":5182:5199   */\n      add\n        /* \"#utility.yul\":5175:5222   */\n      mstore\n        /* \"#utility.yul\":5239:5317   */\n      tag_138\n        /* \"#utility.yul\":5312:5316   */\n      dup2\n        /* \"#utility.yul\":5303:5309   */\n      dup6\n        /* \"#utility.yul\":5239:5317   */\n      tag_61\n      jump\t// in\n    tag_138:\n        /* \"#utility.yul\":5231:5317   */\n      swap1\n      pop\n        /* \"#utility.yul\":5327:5399   */\n      tag_139\n        /* \"#utility.yul\":5395:5397   */\n      0x20\n        /* \"#utility.yul\":5384:5393   */\n      dup4\n        /* \"#utility.yul\":5380:5398   */\n      add\n        /* \"#utility.yul\":5371:5377   */\n      dup5\n        /* \"#utility.yul\":5327:5399   */\n      tag_62\n      jump\t// in\n    tag_139:\n        /* \"#utility.yul\":4983:5406   */\n      swap4\n      swap3\n      pop\n      pop\n      pop\n      jump\t// out\n        /* \"#utility.yul\":5412:5886   */\n    tag_19:\n        /* \"#utility.yul\":5480:5486   */\n      0x00\n        /* \"#utility.yul\":5488:5494   */\n      dup1\n        /* \"#utility.yul\":5537:5539   */\n      0x40\n        /* \"#utility.yul\":5525:5534   */\n      dup4\n        /* \"#utility.yul\":5516:5523   */\n      dup6\n        /* \"#utility.yul\":5512:5535   */\n      sub\n        /* \"#utility.yul\":5508:5540   */\n      slt\n        /* \"#utility.yul\":5505:5624   */\n      iszero\n      tag_141\n      jumpi\n        /* \"#utility.yul\":5543:5622   */\n      tag_142\n      tag_43\n      jump\t// in\n    tag_142:\n        /* \"#utility.yul\":5505:5624   */\n    tag_141:\n        /* \"#utility.yul\":5663:5664   */\n      0x00\n        /* \"#utility.yul\":5688:5741   */\n      tag_143\n        /* \"#utility.yul\":5733:5740   */\n      dup6\n        /* \"#utility.yul\":5724:5730   */\n      dup3\n        /* \"#utility.yul\":5713:5722   */\n      dup7\n        /* \"#utility.yul\":5709:5731   */\n      add\n        /* \"#utility.yul\":5688:5741   */\n      tag_47\n      jump\t// in\n    tag_143:\n        /* \"#utility.yul\":5678:5741   */\n      swap3\n      pop\n        /* \"#utility.yul\":5634:5751   */\n      pop\n        /* \"#utility.yul\":5790:5792   */\n      0x20\n        /* \"#utility.yul\":5816:5869   */\n      tag_144\n        /* \"#utility.yul\":5861:5868   */\n      dup6\n        /* \"#utility.yul\":5852:5858   */\n      dup3\n        /* \"#utility.yul\":5841:5850   */\n      dup7\n        /* \"#utility.yul\":5837:5859   */\n      add\n        /* \"#utility.yul\":5816:5869   */\n      tag_47\n      jump\t// in\n    tag_144:\n        /* \"#utility.yul\":5806:5869   */\n      swap2\n      pop\n        /* \"#utility.yul\":5761:5879   */\n      pop\n        /* \"#utility.yul\":5412:5886   */\n      swap3\n      pop\n      swap3\n      swap1\n      pop\n      jump\t// out\n        /* \"#utility.yul\":5892:6072   */\n    tag_63:\n        /* \"#utility.yul\":5940:6017   */\n      0x4e487b7100000000000000000000000000000000000000000000000000000000\n        /* \"#utility.yul\":5937:5938   */\n      0x00\n        /* \"#utility.yul\":5930:6018   */\n      mstore\n        /* \"#utility.yul\":6037:6041   */\n      0x22\n        /* \"#utility.yul\":6034:6035   */\n      0x04\n        /* \"#utility.yul\":6027:6042   */\n      mstore\n        /* \"#utility.yul\":6061:6065   */\n      0x24\n        /* \"#utility.yul\":6058:6059   */\n      0x00\n        /* \"#utility.yul\":6051:6066   */\n      revert\n        /* \"#utility.yul\":6078:6398   */\n    tag_31:\n        /* \"#utility.yul\":6122:6128   */\n      0x00\n        /* \"#utility.yul\":6159:6160   */\n      0x02\n        /* \"#utility.yul\":6153:6157   */\n      dup3\n        /* \"#utility.yul\":6149:6161   */\n      div\n        /* \"#utility.yul\":6139:6161   */\n      swap1\n      pop\n        /* \"#utility.yul\":6206:6207   */\n      0x01\n        /* \"#utility.yul\":6200:6204   */\n      dup3\n        /* \"#utility.yul\":6196:6208   */\n      and\n        /* \"#utility.yul\":6227:6245   */\n      dup1\n        /* \"#utility.yul\":6217:6298   */\n      tag_147\n      jumpi\n        /* \"#utility.yul\":6283:6287   */\n      0x7f\n        /* \"#utility.yul\":6275:6281   */\n      dup3\n        /* \"#utility.yul\":6271:6288   */\n      and\n        /* \"#utility.yul\":6261:6288   */\n      swap2\n      pop\n        /* \"#utility.yul\":6217:6298   */\n    tag_147:\n        /* \"#utility.yul\":6345:6347   */\n      0x20\n        /* \"#utility.yul\":6337:6343   */\n      dup3\n        /* \"#utility.yul\":6334:6348   */\n      lt\n        /* \"#utility.yul\":6314:6332   */\n      dup2\n        /* \"#utility.yul\":6311:6349   */\n      sub\n        /* \"#utility.yul\":6308:6392   */\n      tag_148\n      jumpi\n        /* \"#utility.yul\":6364:6382   */\n      tag_149\n      tag_63\n      jump\t// in\n    tag_149:\n        /* \"#utility.yul\":6308:6392   */\n    tag_148:\n        /* \"#utility.yul\":6129:6398   */\n      pop\n        /* \"#utility.yul\":6078:6398   */\n      swap2\n      swap1\n      pop\n      jump\t// out\n        /* \"#utility.yul\":6404:6545   */\n    tag_64:\n        /* \"#utility.yul\":6453:6457   */\n      0x00\n        /* \"#utility.yul\":6476:6479   */\n      dup2\n        /* \"#utility.yul\":6468:6479   */\n      swap1\n      pop\n        /* \"#utility.yul\":6499:6502   */\n      dup2\n        /* \"#utility.yul\":6496:6497   */\n      0x00\n        /* \"#utility.yul\":6489:6503   */\n      mstore\n        /* \"#utility.yul\":6533:6537   */\n      0x20\n        /* \"#utility.yul\":6530:6531   */\n      0x00\n        /* \"#utility.yul\":6520:6538   */\n      keccak256\n        /* \"#utility.yul\":6512:6538   */\n      swap1\n      pop\n        /* \"#utility.yul\":6404:6545   */\n      swap2\n      swap1\n      pop\n      jump\t// out\n        /* \"#utility.yul\":6551:6644   */\n    tag_65:\n        /* \"#utility.yul\":6588:6594   */\n      0x00\n        /* \"#utility.yul\":6635:6637   */\n      0x20\n        /* \"#utility.yul\":6630:6632   */\n      0x1f\n        /* \"#utility.yul\":6623:6628   */\n      dup4\n        /* \"#utility.yul\":6619:6633   */\n      add\n        /* \"#utility.yul\":6615:6638   */\n      div\n        /* \"#utility.yul\":6605:6638   */\n      swap1\n      pop\n        /* \"#utility.yul\":6551:6644   */\n      swap2\n      swap1\n      pop\n      jump\t// out\n        /* \"#utility.yul\":6650:6757   */\n    tag_66:\n        /* \"#utility.yul\":6694:6702   */\n      0x00\n        /* \"#utility.yul\":6744:6749   */\n      dup3\n        /* \"#utility.yul\":6738:6742   */\n      dup3\n        /* \"#utility.yul\":6734:6750   */\n      shl\n        /* \"#utility.yul\":6713:6750   */\n      swap1\n      pop\n        /* \"#utility.yul\":6650:6757   */\n      swap3\n      swap2\n      pop\n      pop\n      jump\t// out\n        /* \"#utility.yul\":6763:7156   */\n    tag_67:\n        /* \"#utility.yul\":6832:6838   */\n      0x00\n        /* \"#utility.yul\":6882:6883   */\n      0x08\n        /* \"#utility.yul\":6870:6880   */\n      dup4\n        /* \"#utility.yul\":6866:6884   */\n      mul\n        /* \"#utility.yul\":6905:7002   */\n      tag_154\n        /* \"#utility.yul\":6935:7001   */\n      0xffffffffffffffffffffffffffffffffffffffffffffffffffffffffffffffff\n        /* \"#utility.yul\":6924:6933   */\n      dup3\n        /* \"#utility.yul\":6905:7002   */\n      tag_66\n      jump\t// in\n    tag_154:\n        /* \"#utility.yul\":7023:7062   */\n      tag_155\n        /* \"#utility.yul\":7053:7061   */\n      dup7\n        /* \"#utility.yul\":7042:7051   */\n      dup4\n        /* \"#utility.yul\":7023:7062   */\n      tag_66\n      jump\t// in\n    tag_155:\n        /* \"#utility.yul\":7011:7062   */\n      swap6\n      pop\n        /* \"#utility.yul\":7095:7099   */\n      dup1\n        /* \"#utility.yul\":7091:7100   */\n      not\n        /* \"#utility.yul\":7084:7089   */\n      dup5\n        /* \"#utility.yul\":7080:7101   */\n      and\n        /* \"#utility.yul\":7071:7101   */\n      swap4\n      pop\n        /* \"#utility.yul\":7144:7148   */\n      dup1\n        /* \"#utility.yul\":7134:7142   */\n      dup7\n        /* \"#utility.yul\":7130:7149   */\n      and\n        /* \"#utility.yul\":7123:7128   */\n      dup5\n        /* \"#utility.yul\":7120:7150   */\n      or\n        /* \"#utility.yul\":7110:7150   */\n      swap3\n      pop\n        /* \"#utility.yul\":6839:7156   */\n      pop\n      pop\n        /* \"#utility.yul\":6763:7156   */\n      swap4\n      swap3\n      pop\n      pop\n      pop\n      jump\t// out\n        /* \"#utility.yul\":7162:7222   */\n    tag_68:\n        /* \"#utility.yul\":7190:7193   */\n      0x00\n        /* \"#utility.yul\":7211:7216   */\n      dup2\n        /* \"#utility.yul\":7204:7216   */\n      swap1\n      pop\n        /* \"#utility.yul\":7162:7222   */\n      swap2\n      swap1\n      pop\n      jump\t// out\n        /* \"#utility.yul\":7228:7370   */\n    tag_69:\n        /* \"#utility.yul\":7278:7287   */\n      0x00\n        /* \"#utility.yul\":7311:7364   */\n      tag_158\n        /* \"#utility.yul\":7329:7363   */\n      tag_159\n        /* \"#utility.yul\":7338:7362   */\n      tag_160\n        /* \"#utility.yul\":7356:7361   */\n      dup5\n        /* \"#utility.yul\":7338:7362   */\n      tag_45\n      jump\t// in\n    tag_160:\n        /* \"#utility.yul\":7329:7363   */\n      tag_68\n      jump\t// in\n    tag_159:\n        /* \"#utility.yul\":7311:7364   */\n      tag_45\n      jump\t// in\n    tag_158:\n        /* \"#utility.yul\":7298:7364   */\n      swap1\n      pop\n        /* \"#utility.yul\":7228:7370   */\n      swap2\n      swap1\n      pop\n      jump\t// out\n        /* \"#utility.yul\":7376:7451   */\n    tag_70:\n        /* \"#utility.yul\":7419:7422   */\n      0x00\n        /* \"#utility.yul\":7440:7445   */\n      dup2\n        /* \"#utility.yul\":7433:7445   */\n      swap1\n      pop\n        /* \"#utility.yul\":7376:7451   */\n      swap2\n      swap1\n      pop\n      jump\t// out\n        /* \"#utility.yul\":7457:7726   */\n    tag_71:\n        /* \"#utility.yul\":7567:7606   */\n      tag_163\n        /* \"#utility.yul\":7598:7605   */\n      dup4\n        /* \"#utility.yul\":7567:7606   */\n      tag_69\n      jump\t// in\n    tag_163:\n        /* \"#utility.yul\":7628:7719   */\n      tag_164\n        /* \"#utility.yul\":7677:7718   */\n      tag_165\n        /* \"#utility.yul\":7701:7717   */\n      dup3\n        /* \"#utility.yul\":7677:7718   */\n      tag_70\n      jump\t// in\n    tag_165:\n        /* \"#utility.yul\":7669:7675   */\n      dup5\n        /* \"#utility.yul\":7662:7666   */\n      dup5\n        /* \"#utility.yul\":7656:7667   */\n      sload\n        /* \"#utility.yul\":7628:7719   */\n      tag_67\n      jump\t// in\n    tag_164:\n        /* \"#utility.yul\":7622:7626   */\n      dup3\n        /* \"#utility.yul\":7615:7720   */\n      sstore\n        /* \"#utility.yul\":7533:7726   */\n      pop\n        /* \"#utility.yul\":7457:7726   */\n      pop\n      pop\n      pop\n      jump\t// out\n        /* \"#utility.yul\":7732:7805   */\n    tag_72:\n        /* \"#utility.yul\":7777:7780   */\n      0x00\n        /* \"#utility.yul\":7732:7805   */\n      swap1\n      jump\t// out\n        /* \"#utility.yul\":7811:8000   */\n    tag_73:\n        /* \"#utility.yul\":7888:7920   */\n      tag_168\n      tag_72\n      jump\t// in\n    tag_168:\n        /* \"#utility.yul\":7929:7994   */\n      tag_169\n        /* \"#utility.yul\":7987:7993   */\n      dup2\n        /* \"#utility.yul\":7979:7985   */\n      dup5\n        /* \"#utility.yul\":7973:7977   */\n      dup5\n        /* \"#utility.yul\":7929:7994   */\n      tag_71\n      jump\t// in\n    tag_169:\n        /* \"#utility.yul\":7864:8000   */\n      pop\n        /* \"#utility.yul\":7811:8000   */\n      pop\n      pop\n      jump\t// out\n        /* \"#utility.yul\":8006:8192   */\n    tag_74:\n        /* \"#utility.yul\":8066:8186   */\n    tag_171:\n        /* \"#utility.yul\":8083:8086   */\n      dup2\n        /* \"#utility.yul\":8076:8081   */\n      dup2\n        /* \"#utility.yul\":8073:8087   */\n      lt\n        /* \"#utility.yul\":8066:8186   */\n      iszero\n      tag_173\n      jumpi\n        /* \"#utility.yul\":8137:8176   */\n      tag_174\n        /* \"#utility.yul\":8174:8175   */\n      0x00\n        /* \"#utility.yul\":8167:8172   */\n      dup3\n        /* \"#utility.yul\":8137:8176   */\n      tag_73\n      jump\t// in\n    tag_174:\n        /* \"#utility.yul\":8110:8111   */\n      0x01\n        /* \"#utility.yul\":8103:8108   */\n      dup2\n        /* \"#utility.yul\":8099:8112   */\n      add\n        /* \"#utility.yul\":8090:8112   */\n      swap1\n      pop\n        /* \"#utility.yul\":8066:8186   */\n      jump(tag_171)\n    tag_173:\n        /* \"#utility.yul\":8006:8192   */\n      pop\n      pop\n      jump\t// out\n        /* \"#utility.yul\":8198:8741   */\n    tag_75:\n        /* \"#utility.yul\":8299:8301   */\n      0x1f\n        /* \"#utility.yul\":8294:8297   */\n      dup3\n        /* \"#utility.yul\":8291:8302   */\n      gt\n        /* \"#utility.yul\":8288:8734   */\n      iszero\n      tag_176\n      jumpi\n        /* \"#utility.yul\":8333:8371   */\n      tag_177\n        /* \"#utility.yul\":8365:8370   */\n      dup2\n        /* \"#utility.yul\":8333:8371   */\n      tag_64\n      jump\t// in\n    tag_177:\n        /* \"#utility.yul\":8417:8446   */\n      tag_178\n        /* \"#utility.yul\":8435:8445   */\n      dup5\n        /* \"#utility.yul\":8417:8446   */\n      tag_65\n      jump\t// in\n    tag_178:\n        /* \"#utility.yul\":8407:8415   */\n      dup2\n        /* \"#utility.yul\":8403:8447   */\n      add\n        /* \"#utility.yul\":8600:8602   */\n      0x20\n        /* \"#utility.yul\":8588:8598   */\n      dup6\n        /* \"#utility.yul\":8585:8603   */\n      lt\n        /* \"#utility.yul\":8582:8631   */\n      iszero\n      tag_179\n      jumpi\n        /* \"#utility.yul\":8621:8629   */\n      dup2\n        /* \"#utility.yul\":8606:8629   */\n      swap1\n      pop\n        /* \"#utility.yul\":8582:8631   */\n    tag_179:\n        /* \"#utility.yul\":8644:8724   */\n      tag_180\n        /* \"#utility.yul\":8700:8722   */\n      tag_181\n        /* \"#utility.yul\":8718:8721   */\n      dup6\n        /* \"#utility.yul\":8700:8722   */\n      tag_65\n      jump\t// in\n    tag_181:\n        /* \"#utility.yul\":8690:8698   */\n      dup4\n        /* \"#utility.yul\":8686:8723   */\n      add\n        /* \"#utility.yul\":8673:8684   */\n      dup3\n        /* \"#utility.yul\":8644:8724   */\n      tag_74\n      jump\t// in\n    tag_180:\n        /* \"#utility.yul\":8303:8734   */\n      pop\n      pop\n        /* \"#utility.yul\":8288:8734   */\n    tag_176:\n        /* \"#utility.yul\":8198:8741   */\n      pop\n      pop\n      pop\n      jump\t// out\n        /* \"#utility.yul\":8747:8864   */\n    tag_76:\n        /* \"#utility.yul\":8801:8809   */\n      0x00\n        /* \"#utility.yul\":8851:8856   */\n      dup3\n        /* \"#utility.yul\":8845:8849   */\n      dup3\n        /* \"#utility.yul\":8841:8857   */\n      shr\n        /* \"#utility.yul\":8820:8857   */\n      swap1\n      pop\n        /* \"#utility.yul\":8747:8864   */\n      swap3\n      swap2\n      pop\n      pop\n      jump\t// out\n        /* \"#utility.yul\":8870:9039   */\n    tag_77:\n        /* \"#utility.yul\":8914:8920   */\n      0x00\n        /* \"#utility.yul\":8947:8998   */\n      tag_184\n        /* \"#utility.yul\":8995:8996   */\n      0x00\n        /* \"#utility.yul\":8991:8997   */\n      not\n        /* \"#utility.yul\":8983:8988   */\n      dup5\n        /* \"#utility.yul\":8980:8981   */\n      0x08\n        /* \"#utility.yul\":8976:8989   */\n      mul\n        /* \"#utility.yul\":8947:8998   */\n      tag_76\n      jump\t// in\n    tag_184:\n        /* \"#utility.yul\":8943:8999   */\n      not\n        /* \"#utility.yul\":9028:9032   */\n      dup1\n        /* \"#utility.yul\":9022:9026   */\n      dup4\n        /* \"#utility.yul\":9018:9033   */\n      and\n        /* \"#utility.yul\":9008:9033   */\n      swap2\n      pop\n        /* \"#utility.yul\":8921:9039   */\n      pop\n        /* \"#utility.yul\":8870:9039   */\n      swap3\n      swap2\n      pop\n      pop\n      jump\t// out\n        /* \"#utility.yul\":9044:9339   */\n    tag_78:\n        /* \"#utility.yul\":9120:9124   */\n      0x00\n        /* \"#utility.yul\":9266:9295   */\n      tag_186\n        /* \"#utility.yul\":9291:9294   */\n      dup4\n        /* \"#utility.yul\":9285:9289   */\n      dup4\n        /* \"#utility.yul\":9266:9295   */\n      tag_77\n      jump\t// in\n    tag_186:\n        /* \"#utility.yul\":9258:9295   */\n      swap2\n      pop\n        /* \"#utility.yul\":9328:9331   */\n      dup3\n        /* \"#utility.yul\":9325:9326   */\n      0x02\n        /* \"#utility.yul\":9321:9332   */\n      mul\n        /* \"#utility.yul\":9315:9319   */\n      dup3\n        /* \"#utility.yul\":9312:9333   */\n      or\n        /* \"#utility.yul\":9304:9333   */\n      swap1\n      pop\n        /* \"#utility.yul\":9044:9339   */\n      swap3\n      swap2\n      pop\n      pop\n      jump\t// out\n        /* \"#utility.yul\":9344:10739   */\n    tag_27:\n        /* \"#utility.yul\":9461:9498   */\n      tag_188\n        /* \"#utility.yul\":9494:9497   */\n      dup3\n        /* \"#utility.yul\":9461:9498   */\n      tag_58\n      jump\t// in\n    tag_188:\n        /* \"#utility.yul\":9563:9581   */\n      0xffffffffffffffff\n        /* \"#utility.yul\":9555:9561   */\n      dup2\n        /* \"#utility.yul\":9552:9582   */\n      gt\n        /* \"#utility.yul\":9549:9605   */\n      iszero\n      tag_189\n      jumpi\n        /* \"#utility.yul\":9585:9603   */\n      tag_190\n      tag_51\n      jump\t// in\n    tag_190:\n        /* \"#utility.yul\":9549:9605   */\n    tag_189:\n        /* \"#utility.yul\":9629:9667   */\n      tag_191\n        /* \"#utility.yul\":9661:9665   */\n      dup3\n        /* \"#utility.yul\":9655:9666   */\n      sload\n        /* \"#utility.yul\":9629:9667   */\n      tag_31\n      jump\t// in\n    tag_191:\n        /* \"#utility.yul\":9714:9781   */\n      tag_192\n        /* \"#utility.yul\":9774:9780   */\n      dup3\n        /* \"#utility.yul\":9766:9772   */\n      dup3\n        /* \"#utility.yul\":9760:9764   */\n      dup6\n        /* \"#utility.yul\":9714:9781   */\n      tag_75\n      jump\t// in\n    tag_192:\n        /* \"#utility.yul\":9808:9809   */\n      0x00\n        /* \"#utility.yul\":9832:9836   */\n      0x20\n        /* \"#utility.yul\":9819:9836   */\n      swap1\n      pop\n        /* \"#utility.yul\":9864:9866   */\n      0x1f\n        /* \"#utility.yul\":9856:9862   */\n      dup4\n        /* \"#utility.yul\":9853:9867   */\n      gt\n        /* \"#utility.yul\":9881:9882   */\n      0x01\n        /* \"#utility.yul\":9876:10494   */\n      dup2\n      eq\n      tag_194\n      jumpi\n        /* \"#utility.yul\":10538:10539   */\n      0x00\n        /* \"#utility.yul\":10555:10561   */\n      dup5\n        /* \"#utility.yul\":10552:10629   */\n      iszero\n      tag_195\n      jumpi\n        /* \"#utility.yul\":10604:10613   */\n      dup3\n        /* \"#utility.yul\":10599:10602   */\n      dup8\n        /* \"#utility.yul\":10595:10614   */\n      add\n        /* \"#utility.yul\":10589:10615   */\n      mload\n        /* \"#utility.yul\":10580:10615   */\n      swap1\n      pop\n        /* \"#utility.yul\":10552:10629   */\n    tag_195:\n        /* \"#utility.yul\":10655:10722   */\n      tag_196\n        /* \"#utility.yul\":10715:10721   */\n      dup6\n        /* \"#utility.yul\":10708:10713   */\n      dup3\n        /* \"#utility.yul\":10655:10722   */\n      tag_78\n      jump\t// in\n    tag_196:\n        /* \"#utility.yul\":10649:10653   */\n      dup7\n        /* \"#utility.yul\":10642:10723   */\n      sstore\n        /* \"#utility.yul\":10511:10733   */\n      pop\n        /* \"#utility.yul\":9846:10733   */\n      jump(tag_193)\n        /* \"#utility.yul\":9876:10494   */\n    tag_194:\n        /* \"#utility.yul\":9928:9932   */\n      0x1f\n        /* \"#utility.yul\":9924:9933   */\n      not\n        /* \"#utility.yul\":9916:9922   */\n      dup5\n        /* \"#utility.yul\":9912:9934   */\n      and\n        /* \"#utility.yul\":9962:9999   */\n      tag_197\n        /* \"#utility.yul\":9994:9998   */\n      dup7\n        /* \"#utility.yul\":9962:9999   */\n      tag_64\n      jump\t// in\n    tag_197:\n        /* \"#utility.yul\":10021:10022   */\n      0x00\n        /* \"#utility.yul\":10035:10243   */\n    tag_198:\n        /* \"#utility.yul\":10049:10056   */\n      dup3\n        /* \"#utility.yul\":10046:10047   */\n      dup2\n        /* \"#utility.yul\":10043:10057   */\n      lt\n        /* \"#utility.yul\":10035:10243   */\n      iszero\n      tag_200\n      jumpi\n        /* \"#utility.yul\":10128:10137   */\n      dup5\n        /* \"#utility.yul\":10123:10126   */\n      dup10\n        /* \"#utility.yul\":10119:10138   */\n      add\n        /* \"#utility.yul\":10113:10139   */\n      mload\n        /* \"#utility.yul\":10105:10111   */\n      dup3\n        /* \"#utility.yul\":10098:10140   */\n      sstore\n        /* \"#utility.yul\":10179:10180   */\n      0x01\n        /* \"#utility.yul\":10171:10177   */\n      dup3\n        /* \"#utility.yul\":10167:10181   */\n      add\n        /* \"#utility.yul\":10157:10181   */\n      swap2\n      pop\n        /* \"#utility.yul\":10226:10228   */\n      0x20\n        /* \"#utility.yul\":10215:10224   */\n      dup6\n        /* \"#utility.yul\":10211:10229   */\n      add\n        /* \"#utility.yul\":10198:10229   */\n      swap5\n      pop\n        /* \"#utility.yul\":10072:10076   */\n      0x20\n        /* \"#utility.yul\":10069:10070   */\n      dup2\n        /* \"#utility.yul\":10065:10077   */\n      add\n        /* \"#utility.yul\":10060:10077   */\n      swap1\n      pop\n        /* \"#utility.yul\":10035:10243   */\n      jump(tag_198)\n    tag_200:\n        /* \"#utility.yul\":10271:10277   */\n      dup7\n        /* \"#utility.yul\":10262:10269   */\n      dup4\n        /* \"#utility.yul\":10259:10278   */\n      lt\n        /* \"#utility.yul\":10256:10435   */\n      iszero\n      tag_201\n      jumpi\n        /* \"#utility.yul\":10329:10338   */\n      dup5\n        /* \"#utility.yul\":10324:10327   */\n      dup10\n        /* \"#utility.yul\":10320:10339   */\n      add\n        /* \"#utility.yul\":10314:10340   */\n      mload\n        /* \"#utility.yul\":10372:10420   */\n      tag_202\n        /* \"#utility.yul\":10414:10418   */\n      0x1f\n        /* \"#utility.yul\":10406:10412   */\n      dup10\n        /* \"#utility.yul\":10402:10419   */\n      and\n        /* \"#utility.yul\":10391:10400   */\n      dup3\n        /* \"#utility.yul\":10372:10420   */\n      tag_77\n      jump\t// in\n    tag_202:\n        /* \"#utility.yul\":10364:10370   */\n      dup4\n        /* \"#utility.yul\":10357:10421   */\n      sstore\n        /* \"#utility.yul\":10279:10435   */\n      pop\n        /* \"#utility.yul\":10256:10435   */\n    tag_201:\n        /* \"#utility.yul\":10481:10482   */\n      0x01\n        /* \"#utility.yul\":10477:10478   */\n      0x02\n        /* \"#utility.yul\":10469:10475   */\n      dup9\n        /* \"#utility.yul\":10465:10479   */\n      mul\n        /* \"#utility.yul\":10461:10483   */\n      add\n        /* \"#utility.yul\":10455:10459   */\n      dup9\n        /* \"#utility.yul\":10448:10484   */\n      sstore\n        /* \"#utility.yul\":9883:10494   */\n      pop\n      pop\n      pop\n        /* \"#utility.yul\":9846:10733   */\n    tag_193:\n      pop\n        /* \"#utility.yul\":9436:10739   */\n      pop\n      pop\n      pop\n        /* \"#utility.yul\":9344:10739   */\n      pop\n      pop\n      jump\t// out\n\n    auxdata: 0xa26469706673582212209c671ce9f1f668301e70a9a489bbfda5cb807a01d2574114cd36ca939bf0c39464736f6c634300081a0033\n}\n",
				"bytecode": {
					"linkReferences": {},
					"object": "6080604052348015600e575f80fd5b506108d38061001c5f395ff3fe608060405234801561000f575f80fd5b506004361061004a575f3560e01c80633b9d6ae61461004e578063609817051461006a578063819aa3111461009b5780639e7a13ad146100b7575b5f80fd5b61006860048036038101906100639190610462565b6100e8565b005b610084600480360381019061007f91906104ce565b61016c565b604051610092929190610568565b60405180910390f35b6100b560048036038101906100b09190610596565b610239565b005b6100d160048036038101906100cc91906104ce565b61023d565b6040516100df929190610568565b60405180910390f35b6040518060400160405280838152602001828152505f808581526020019081526020015f205f820151815f01908161012091906107ce565b50602082015181600101559050507f08c348257250b9a91c627c3db87873515ba7259b31d758fdad8650a2230a3395828260405161015f929190610568565b60405180910390a1505050565b60605f805f808581526020019081526020015f206040518060400160405290815f8201805461019a90610601565b80601f01602080910402602001604051908101604052809291908181526020018280546101c690610601565b80156102115780601f106101e857610100808354040283529160200191610211565b820191905f5260205f20905b8154815290600101906020018083116101f457829003601f168201915b505050505081526020016001820154815250509050805f015181602001519250925050915091565b5050565b5f602052805f5260405f205f91509050805f01805461025b90610601565b80601f016020809104026020016040519081016040528092919081815260200182805461028790610601565b80156102d25780601f106102a9576101008083540402835291602001916102d2565b820191905f5260205f20905b8154815290600101906020018083116102b557829003601f168201915b5050505050908060010154905082565b5f604051905090565b5f80fd5b5f80fd5b5f819050919050565b610305816102f3565b811461030f575f80fd5b50565b5f81359050610320816102fc565b92915050565b5f80fd5b5f80fd5b5f601f19601f8301169050919050565b7f4e487b71000000000000000000000000000000000000000000000000000000005f52604160045260245ffd5b6103748261032e565b810181811067ffffffffffffffff821117156103935761039261033e565b5b80604052505050565b5f6103a56102e2565b90506103b1828261036b565b919050565b5f67ffffffffffffffff8211156103d0576103cf61033e565b5b6103d98261032e565b9050602081019050919050565b828183375f83830152505050565b5f610406610401846103b6565b61039c565b9050828152602081018484840111156104225761042161032a565b5b61042d8482856103e6565b509392505050565b5f82601f83011261044957610448610326565b5b81356104598482602086016103f4565b91505092915050565b5f805f60608486031215610479576104786102eb565b5b5f61048686828701610312565b935050602084013567ffffffffffffffff8111156104a7576104a66102ef565b5b6104b386828701610435565b92505060406104c486828701610312565b9150509250925092565b5f602082840312156104e3576104e26102eb565b5b5f6104f084828501610312565b91505092915050565b5f81519050919050565b5f82825260208201905092915050565b8281835e5f83830152505050565b5f61052b826104f9565b6105358185610503565b9350610545818560208601610513565b61054e8161032e565b840191505092915050565b610562816102f3565b82525050565b5f6040820190508181035f8301526105808185610521565b905061058f6020830184610559565b9392505050565b5f80604083850312156105ac576105ab6102eb565b5b5f6105b985828601610312565b92505060206105ca85828601610312565b9150509250929050565b7f4e487b71000000000000000000000000000000000000000000000000000000005f52602260045260245ffd5b5f600282049050600182168061061857607f821691505b60208210810361062b5761062a6105d4565b5b50919050565b5f819050815f5260205f209050919050565b5f6020601f8301049050919050565b5f82821b905092915050565b5f6008830261068d7fffffffffffffffffffffffffffffffffffffffffffffffffffffffffffffffff82610652565b6106978683610652565b95508019841693508086168417925050509392505050565b5f819050919050565b5f6106d26106cd6106c8846102f3565b6106af565b6102f3565b9050919050565b5f819050919050565b6106eb836106b8565b6106ff6106f7826106d9565b84845461065e565b825550505050565b5f90565b610713610707565b61071e8184846106e2565b505050565b5b81811015610741576107365f8261070b565b600181019050610724565b5050565b601f8211156107865761075781610631565b61076084610643565b8101602085101561076f578190505b61078361077b85610643565b830182610723565b50505b505050565b5f82821c905092915050565b5f6107a65f198460080261078b565b1980831691505092915050565b5f6107be8383610797565b9150826002028217905092915050565b6107d7826104f9565b67ffffffffffffffff8111156107f0576107ef61033e565b5b6107fa8254610601565b610805828285610745565b5f60209050601f831160018114610836575f8415610824578287015190505b61082e85826107b3565b865550610895565b601f19841661084486610631565b5f5b8281101561086b57848901518255600182019150602085019450602081019050610846565b868310156108885784890151610884601f891682610797565b8355505b6001600288020188555050505b50505050505056fea26469706673582212209c671ce9f1f668301e70a9a489bbfda5cb807a01d2574114cd36ca939bf0c39464736f6c634300081a0033",
					"opcodes": "PUSH1 0x80 PUSH1 0x40 MSTORE CALLVALUE DUP1 ISZERO PUSH1 0xE JUMPI PUSH0 DUP1 REVERT JUMPDEST POP PUSH2 0x8D3 DUP1 PUSH2 0x1C PUSH0 CODECOPY PUSH0 RETURN INVALID PUSH1 0x80 PUSH1 0x40 MSTORE CALLVALUE DUP1 ISZERO PUSH2 0xF JUMPI PUSH0 DUP1 REVERT JUMPDEST POP PUSH1 0x4 CALLDATASIZE LT PUSH2 0x4A JUMPI PUSH0 CALLDATALOAD PUSH1 0xE0 SHR DUP1 PUSH4 0x3B9D6AE6 EQ PUSH2 0x4E JUMPI DUP1 PUSH4 0x60981705 EQ PUSH2 0x6A JUMPI DUP1 PUSH4 0x819AA311 EQ PUSH2 0x9B JUMPI DUP1 PUSH4 0x9E7A13AD EQ PUSH2 0xB7 JUMPI JUMPDEST PUSH0 DUP1 REVERT JUMPDEST PUSH2 0x68 PUSH1 0x4 DUP1 CALLDATASIZE SUB DUP2 ADD SWAP1 PUSH2 0x63 SWAP2 SWAP1 PUSH2 0x462 JUMP JUMPDEST PUSH2 0xE8 JUMP JUMPDEST STOP JUMPDEST PUSH2 0x84 PUSH1 0x4 DUP1 CALLDATASIZE SUB DUP2 ADD SWAP1 PUSH2 0x7F SWAP2 SWAP1 PUSH2 0x4CE JUMP JUMPDEST PUSH2 0x16C JUMP JUMPDEST PUSH1 0x40 MLOAD PUSH2 0x92 SWAP3 SWAP2 SWAP1 PUSH2 0x568 JUMP JUMPDEST PUSH1 0x40 MLOAD DUP1 SWAP2 SUB SWAP1 RETURN JUMPDEST PUSH2 0xB5 PUSH1 0x4 DUP1 CALLDATASIZE SUB DUP2 ADD SWAP1 PUSH2 0xB0 SWAP2 SWAP1 PUSH2 0x596 JUMP JUMPDEST PUSH2 0x239 JUMP JUMPDEST STOP JUMPDEST PUSH2 0xD1 PUSH1 0x4 DUP1 CALLDATASIZE SUB DUP2 ADD SWAP1 PUSH2 0xCC SWAP2 SWAP1 PUSH2 0x4CE JUMP JUMPDEST PUSH2 0x23D JUMP JUMPDEST PUSH1 0x40 MLOAD PUSH2 0xDF SWAP3 SWAP2 SWAP1 PUSH2 0x568 JUMP JUMPDEST PUSH1 0x40 MLOAD DUP1 SWAP2 SUB SWAP1 RETURN JUMPDEST PUSH1 0x40 MLOAD DUP1 PUSH1 0x40 ADD PUSH1 0x40 MSTORE DUP1 DUP4 DUP2 MSTORE PUSH1 0x20 ADD DUP3 DUP2 MSTORE POP PUSH0 DUP1 DUP6 DUP2 MSTORE PUSH1 0x20 ADD SWAP1 DUP2 MSTORE PUSH1 0x20 ADD PUSH0 KECCAK256 PUSH0 DUP3 ADD MLOAD DUP2 PUSH0 ADD SWAP1 DUP2 PUSH2 0x120 SWAP2 SWAP1 PUSH2 0x7CE JUMP JUMPDEST POP PUSH1 0x20 DUP3 ADD MLOAD DUP2 PUSH1 0x1 ADD SSTORE SWAP1 POP POP PUSH32 0x8C348257250B9A91C627C3DB87873515BA7259B31D758FDAD8650A2230A3395 DUP3 DUP3 PUSH1 0x40 MLOAD PUSH2 0x15F SWAP3 SWAP2 SWAP1 PUSH2 0x568 JUMP JUMPDEST PUSH1 0x40 MLOAD DUP1 SWAP2 SUB SWAP1 LOG1 POP POP POP JUMP JUMPDEST PUSH1 0x60 PUSH0 DUP1 PUSH0 DUP1 DUP6 DUP2 MSTORE PUSH1 0x20 ADD SWAP1 DUP2 MSTORE PUSH1 0x20 ADD PUSH0 KECCAK256 PUSH1 0x40 MLOAD DUP1 PUSH1 0x40 ADD PUSH1 0x40 MSTORE SWAP1 DUP2 PUSH0 DUP3 ADD DUP1 SLOAD PUSH2 0x19A SWAP1 PUSH2 0x601 JUMP JUMPDEST DUP1 PUSH1 0x1F ADD PUSH1 0x20 DUP1 SWAP2 DIV MUL PUSH1 0x20 ADD PUSH1 0x40 MLOAD SWAP1 DUP2 ADD PUSH1 0x40 MSTORE DUP1 SWAP3 SWAP2 SWAP1 DUP2 DUP2 MSTORE PUSH1 0x20 ADD DUP3 DUP1 SLOAD PUSH2 0x1C6 SWAP1 PUSH2 0x601 JUMP JUMPDEST DUP1 ISZERO PUSH2 0x211 JUMPI DUP1 PUSH1 0x1F LT PUSH2 0x1E8 JUMPI PUSH2 0x100 DUP1 DUP4 SLOAD DIV MUL DUP4 MSTORE SWAP2 PUSH1 0x20 ADD SWAP2 PUSH2 0x211 JUMP JUMPDEST DUP3 ADD SWAP2 SWAP1 PUSH0 MSTORE PUSH1 0x20 PUSH0 KECCAK256 SWAP1 JUMPDEST DUP2 SLOAD DUP2 MSTORE SWAP1 PUSH1 0x1 ADD SWAP1 PUSH1 0x20 ADD DUP1 DUP4 GT PUSH2 0x1F4 JUMPI DUP3 SWAP1 SUB PUSH1 0x1F AND DUP3 ADD SWAP2 JUMPDEST POP POP POP POP POP DUP2 MSTORE PUSH1 0x20 ADD PUSH1 0x1 DUP3 ADD SLOAD DUP2 MSTORE POP POP SWAP1 POP DUP1 PUSH0 ADD MLOAD DUP2 PUSH1 0x20 ADD MLOAD SWAP3 POP SWAP3 POP POP SWAP2 POP SWAP2 JUMP JUMPDEST POP POP JUMP JUMPDEST PUSH0 PUSH1 0x20 MSTORE DUP1 PUSH0 MSTORE PUSH1 0x40 PUSH0 KECCAK256 PUSH0 SWAP2 POP SWAP1 POP DUP1 PUSH0 ADD DUP1 SLOAD PUSH2 0x25B SWAP1 PUSH2 0x601 JUMP JUMPDEST DUP1 PUSH1 0x1F ADD PUSH1 0x20 DUP1 SWAP2 DIV MUL PUSH1 0x20 ADD PUSH1 0x40 MLOAD SWAP1 DUP2 ADD PUSH1 0x40 MSTORE DUP1 SWAP3 SWAP2 SWAP1 DUP2 DUP2 MSTORE PUSH1 0x20 ADD DUP3 DUP1 SLOAD PUSH2 0x287 SWAP1 PUSH2 0x601 JUMP JUMPDEST DUP1 ISZERO PUSH2 0x2D2 JUMPI DUP1 PUSH1 0x1F LT PUSH2 0x2A9 JUMPI PUSH2 0x100 DUP1 DUP4 SLOAD DIV MUL DUP4 MSTORE SWAP2 PUSH1 0x20 ADD SWAP2 PUSH2 0x2D2 JUMP JUMPDEST DUP3 ADD SWAP2 SWAP1 PUSH0 MSTORE PUSH1 0x20 PUSH0 KECCAK256 SWAP1 JUMPDEST DUP2 SLOAD DUP2 MSTORE SWAP1 PUSH1 0x1 ADD SWAP1 PUSH1 0x20 ADD DUP1 DUP4 GT PUSH2 0x2B5 JUMPI DUP3 SWAP1 SUB PUSH1 0x1F AND DUP3 ADD SWAP2 JUMPDEST POP POP POP POP POP SWAP1 DUP1 PUSH1 0x1 ADD SLOAD SWAP1 POP DUP3 JUMP JUMPDEST PUSH0 PUSH1 0x40 MLOAD SWAP1 POP SWAP1 JUMP JUMPDEST PUSH0 DUP1 REVERT JUMPDEST PUSH0 DUP1 REVERT JUMPDEST PUSH0 DUP2 SWAP1 POP SWAP2 SWAP1 POP JUMP JUMPDEST PUSH2 0x305 DUP2 PUSH2 0x2F3 JUMP JUMPDEST DUP2 EQ PUSH2 0x30F JUMPI PUSH0 DUP1 REVERT JUMPDEST POP JUMP JUMPDEST PUSH0 DUP2 CALLDATALOAD SWAP1 POP PUSH2 0x320 DUP2 PUSH2 0x2FC JUMP JUMPDEST SWAP3 SWAP2 POP POP JUMP JUMPDEST PUSH0 DUP1 REVERT JUMPDEST PUSH0 DUP1 REVERT JUMPDEST PUSH0 PUSH1 0x1F NOT PUSH1 0x1F DUP4 ADD AND SWAP1 POP SWAP2 SWAP1 POP JUMP JUMPDEST PUSH32 0x4E487B7100000000000000000000000000000000000000000000000000000000 PUSH0 MSTORE PUSH1 0x41 PUSH1 0x4 MSTORE PUSH1 0x24 PUSH0 REVERT JUMPDEST PUSH2 0x374 DUP3 PUSH2 0x32E JUMP JUMPDEST DUP2 ADD DUP2 DUP2 LT PUSH8 0xFFFFFFFFFFFFFFFF DUP3 GT OR ISZERO PUSH2 0x393 JUMPI PUSH2 0x392 PUSH2 0x33E JUMP JUMPDEST JUMPDEST DUP1 PUSH1 0x40 MSTORE POP POP POP JUMP JUMPDEST PUSH0 PUSH2 0x3A5 PUSH2 0x2E2 JUMP JUMPDEST SWAP1 POP PUSH2 0x3B1 DUP3 DUP3 PUSH2 0x36B JUMP JUMPDEST SWAP2 SWAP1 POP JUMP JUMPDEST PUSH0 PUSH8 0xFFFFFFFFFFFFFFFF DUP3 GT ISZERO PUSH2 0x3D0 JUMPI PUSH2 0x3CF PUSH2 0x33E JUMP JUMPDEST JUMPDEST PUSH2 0x3D9 DUP3 PUSH2 0x32E JUMP JUMPDEST SWAP1 POP PUSH1 0x20 DUP2 ADD SWAP1 POP SWAP2 SWAP1 POP JUMP JUMPDEST DUP3 DUP2 DUP4 CALLDATACOPY PUSH0 DUP4 DUP4 ADD MSTORE POP POP POP JUMP JUMPDEST PUSH0 PUSH2 0x406 PUSH2 0x401 DUP5 PUSH2 0x3B6 JUMP JUMPDEST PUSH2 0x39C JUMP JUMPDEST SWAP1 POP DUP3 DUP2 MSTORE PUSH1 0x20 DUP2 ADD DUP5 DUP5 DUP5 ADD GT ISZERO PUSH2 0x422 JUMPI PUSH2 0x421 PUSH2 0x32A JUMP JUMPDEST JUMPDEST PUSH2 0x42D DUP5 DUP3 DUP6 PUSH2 0x3E6 JUMP JUMPDEST POP SWAP4 SWAP3 POP POP POP JUMP JUMPDEST PUSH0 DUP3 PUSH1 0x1F DUP4 ADD SLT PUSH2 0x449 JUMPI PUSH2 0x448 PUSH2 0x326 JUMP JUMPDEST JUMPDEST DUP2 CALLDATALOAD PUSH2 0x459 DUP5 DUP3 PUSH1 0x20 DUP7 ADD PUSH2 0x3F4 JUMP JUMPDEST SWAP2 POP POP SWAP3 SWAP2 POP POP JUMP JUMPDEST PUSH0 DUP1 PUSH0 PUSH1 0x60 DUP5 DUP7 SUB SLT ISZERO PUSH2 0x479 JUMPI PUSH2 0x478 PUSH2 0x2EB JUMP JUMPDEST JUMPDEST PUSH0 PUSH2 0x486 DUP7 DUP3 DUP8 ADD PUSH2 0x312 JUMP JUMPDEST SWAP4 POP POP PUSH1 0x20 DUP5 ADD CALLDATALOAD PUSH8 0xFFFFFFFFFFFFFFFF DUP2 GT ISZERO PUSH2 0x4A7 JUMPI PUSH2 0x4A6 PUSH2 0x2EF JUMP JUMPDEST JUMPDEST PUSH2 0x4B3 DUP7 DUP3 DUP8 ADD PUSH2 0x435 JUMP JUMPDEST SWAP3 POP POP PUSH1 0x40 PUSH2 0x4C4 DUP7 DUP3 DUP8 ADD PUSH2 0x312 JUMP JUMPDEST SWAP2 POP POP SWAP3 POP SWAP3 POP SWAP3 JUMP JUMPDEST PUSH0 PUSH1 0x20 DUP3 DUP5 SUB SLT ISZERO PUSH2 0x4E3 JUMPI PUSH2 0x4E2 PUSH2 0x2EB JUMP JUMPDEST JUMPDEST PUSH0 PUSH2 0x4F0 DUP5 DUP3 DUP6 ADD PUSH2 0x312 JUMP JUMPDEST SWAP2 POP POP SWAP3 SWAP2 POP POP JUMP JUMPDEST PUSH0 DUP2 MLOAD SWAP1 POP SWAP2 SWAP1 POP JUMP JUMPDEST PUSH0 DUP3 DUP3 MSTORE PUSH1 0x20 DUP3 ADD SWAP1 POP SWAP3 SWAP2 POP POP JUMP JUMPDEST DUP3 DUP2 DUP4 MCOPY PUSH0 DUP4 DUP4 ADD MSTORE POP POP POP JUMP JUMPDEST PUSH0 PUSH2 0x52B DUP3 PUSH2 0x4F9 JUMP JUMPDEST PUSH2 0x535 DUP2 DUP6 PUSH2 0x503 JUMP JUMPDEST SWAP4 POP PUSH2 0x545 DUP2 DUP6 PUSH1 0x20 DUP7 ADD PUSH2 0x513 JUMP JUMPDEST PUSH2 0x54E DUP2 PUSH2 0x32E JUMP JUMPDEST DUP5 ADD SWAP2 POP POP SWAP3 SWAP2 POP POP JUMP JUMPDEST PUSH2 0x562 DUP2 PUSH2 0x2F3 JUMP JUMPDEST DUP3 MSTORE POP POP JUMP JUMPDEST PUSH0 PUSH1 0x40 DUP3 ADD SWAP1 POP DUP2 DUP2 SUB PUSH0 DUP4 ADD MSTORE PUSH2 0x580 DUP2 DUP6 PUSH2 0x521 JUMP JUMPDEST SWAP1 POP PUSH2 0x58F PUSH1 0x20 DUP4 ADD DUP5 PUSH2 0x559 JUMP JUMPDEST SWAP4 SWAP3 POP POP POP JUMP JUMPDEST PUSH0 DUP1 PUSH1 0x40 DUP4 DUP6 SUB SLT ISZERO PUSH2 0x5AC JUMPI PUSH2 0x5AB PUSH2 0x2EB JUMP JUMPDEST JUMPDEST PUSH0 PUSH2 0x5B9 DUP6 DUP3 DUP7 ADD PUSH2 0x312 JUMP JUMPDEST SWAP3 POP POP PUSH1 0x20 PUSH2 0x5CA DUP6 DUP3 DUP7 ADD PUSH2 0x312 JUMP JUMPDEST SWAP2 POP POP SWAP3 POP SWAP3 SWAP1 POP JUMP JUMPDEST PUSH32 0x4E487B7100000000000000000000000000000000000000000000000000000000 PUSH0 MSTORE PUSH1 0x22 PUSH1 0x4 MSTORE PUSH1 0x24 PUSH0 REVERT JUMPDEST PUSH0 PUSH1 0x2 DUP3 DIV SWAP1 POP PUSH1 0x1 DUP3 AND DUP1 PUSH2 0x618 JUMPI PUSH1 0x7F DUP3 AND SWAP2 POP JUMPDEST PUSH1 0x20 DUP3 LT DUP2 SUB PUSH2 0x62B JUMPI PUSH2 0x62A PUSH2 0x5D4 JUMP JUMPDEST JUMPDEST POP SWAP2 SWAP1 POP JUMP JUMPDEST PUSH0 DUP2 SWAP1 POP DUP2 PUSH0 MSTORE PUSH1 0x20 PUSH0 KECCAK256 SWAP1 POP SWAP2 SWAP1 POP JUMP JUMPDEST PUSH0 PUSH1 0x20 PUSH1 0x1F DUP4 ADD DIV SWAP1 POP SWAP2 SWAP1 POP JUMP JUMPDEST PUSH0 DUP3 DUP3 SHL SWAP1 POP SWAP3 SWAP2 POP POP JUMP JUMPDEST PUSH0 PUSH1 0x8 DUP4 MUL PUSH2 0x68D PUSH32 0xFFFFFFFFFFFFFFFFFFFFFFFFFFFFFFFFFFFFFFFFFFFFFFFFFFFFFFFFFFFFFFFF DUP3 PUSH2 0x652 JUMP JUMPDEST PUSH2 0x697 DUP7 DUP4 PUSH2 0x652 JUMP JUMPDEST SWAP6 POP DUP1 NOT DUP5 AND SWAP4 POP DUP1 DUP7 AND DUP5 OR SWAP3 POP POP POP SWAP4 SWAP3 POP POP POP JUMP JUMPDEST PUSH0 DUP2 SWAP1 POP SWAP2 SWAP1 POP JUMP JUMPDEST PUSH0 PUSH2 0x6D2 PUSH2 0x6CD PUSH2 0x6C8 DUP5 PUSH2 0x2F3 JUMP JUMPDEST PUSH2 0x6AF JUMP JUMPDEST PUSH2 0x2F3 JUMP JUMPDEST SWAP1 POP SWAP2 SWAP1 POP JUMP JUMPDEST PUSH0 DUP2 SWAP1 POP SWAP2 SWAP1 POP JUMP JUMPDEST PUSH2 0x6EB DUP4 PUSH2 0x6B8 JUMP JUMPDEST PUSH2 0x6FF PUSH2 0x6F7 DUP3 PUSH2 0x6D9 JUMP JUMPDEST DUP5 DUP5 SLOAD PUSH2 0x65E JUMP JUMPDEST DUP3 SSTORE POP POP POP POP JUMP JUMPDEST PUSH0 SWAP1 JUMP JUMPDEST PUSH2 0x713 PUSH2 0x707 JUMP JUMPDEST PUSH2 0x71E DUP2 DUP5 DUP5 PUSH2 0x6E2 JUMP JUMPDEST POP POP POP JUMP JUMPDEST JUMPDEST DUP2 DUP2 LT ISZERO PUSH2 0x741 JUMPI PUSH2 0x736 PUSH0 DUP3 PUSH2 0x70B JUMP JUMPDEST PUSH1 0x1 DUP2 ADD SWAP1 POP PUSH2 0x724 JUMP JUMPDEST POP POP JUMP JUMPDEST PUSH1 0x1F DUP3 GT ISZERO PUSH2 0x786 JUMPI PUSH2 0x757 DUP2 PUSH2 0x631 JUMP JUMPDEST PUSH2 0x760 DUP5 PUSH2 0x643 JUMP JUMPDEST DUP2 ADD PUSH1 0x20 DUP6 LT ISZERO PUSH2 0x76F JUMPI DUP2 SWAP1 POP JUMPDEST PUSH2 0x783 PUSH2 0x77B DUP6 PUSH2 0x643 JUMP JUMPDEST DUP4 ADD DUP3 PUSH2 0x723 JUMP JUMPDEST POP POP JUMPDEST POP POP POP JUMP JUMPDEST PUSH0 DUP3 DUP3 SHR SWAP1 POP SWAP3 SWAP2 POP POP JUMP JUMPDEST PUSH0 PUSH2 0x7A6 PUSH0 NOT DUP5 PUSH1 0x8 MUL PUSH2 0x78B JUMP JUMPDEST NOT DUP1 DUP4 AND SWAP2 POP POP SWAP3 SWAP2 POP POP JUMP JUMPDEST PUSH0 PUSH2 0x7BE DUP4 DUP4 PUSH2 0x797 JUMP JUMPDEST SWAP2 POP DUP3 PUSH1 0x2 MUL DUP3 OR SWAP1 POP SWAP3 SWAP2 POP POP JUMP JUMPDEST PUSH2 0x7D7 DUP3 PUSH2 0x4F9 JUMP JUMPDEST PUSH8 0xFFFFFFFFFFFFFFFF DUP2 GT ISZERO PUSH2 0x7F0 JUMPI PUSH2 0x7EF PUSH2 0x33E JUMP JUMPDEST JUMPDEST PUSH2 0x7FA DUP3 SLOAD PUSH2 0x601 JUMP JUMPDEST PUSH2 0x805 DUP3 DUP3 DUP6 PUSH2 0x745 JUMP JUMPDEST PUSH0 PUSH1 0x20 SWAP1 POP PUSH1 0x1F DUP4 GT PUSH1 0x1 DUP2 EQ PUSH2 0x836 JUMPI PUSH0 DUP5 ISZERO PUSH2 0x824 JUMPI DUP3 DUP8 ADD MLOAD SWAP1 POP JUMPDEST PUSH2 0x82E DUP6 DUP3 PUSH2 0x7B3 JUMP JUMPDEST DUP7 SSTORE POP PUSH2 0x895 JUMP JUMPDEST PUSH1 0x1F NOT DUP5 AND PUSH2 0x844 DUP7 PUSH2 0x631 JUMP JUMPDEST PUSH0 JUMPDEST DUP3 DUP2 LT ISZERO PUSH2 0x86B JUMPI DUP5 DUP10 ADD MLOAD DUP3 SSTORE PUSH1 0x1 DUP3 ADD SWAP2 POP PUSH1 0x20 DUP6 ADD SWAP5 POP PUSH1 0x20 DUP2 ADD SWAP1 POP PUSH2 0x846 JUMP JUMPDEST DUP7 DUP4 LT ISZERO PUSH2 0x888 JUMPI DUP5 DUP10 ADD MLOAD PUSH2 0x884 PUSH1 0x1F DUP10 AND DUP3 PUSH2 0x797 JUMP JUMPDEST DUP4 SSTORE POP JUMPDEST PUSH1 0x1 PUSH1 0x2 DUP9 MUL ADD DUP9 SSTORE POP POP POP JUMPDEST POP POP POP POP POP POP JUMP INVALID LOG2 PUSH5 0x6970667358 0x22 SLT KECCAK256 SWAP13 PUSH8 0x1CE9F1F668301E70 0xA9 LOG4 DUP10 0xBB REVERT 0xA5 0xCB DUP1 PUSH27 0x1D2574114CD36CA939BF0C39464736F6C634300081A0033000000 "
				},
				"gasEstimates": {
					"creation": {
						"codeDepositCost": "451800",
						"executionCost": "484",
						"totalCost": "452284"
					},
					"external": {
						"getPersonDetails(uint256)": "infinite",
						"people(uint256)": "infinite",
						"storePerson(uint256,string,uint256)": "infinite",
						"updateAge(uint256,uint256)": "infinite"
					}
				},
				"methodIdentifiers": {
					"getPersonDetails(uint256)": "60981705",
					"people(uint256)": "9e7a13ad",
					"storePerson(uint256,string,uint256)": "3b9d6ae6",
					"updateAge(uint256,uint256)": "819aa311"
				}
			},
			"storageLayout": {
				"storage": [
					{
						"astId": 90,
						"contract": "contracts/Storage.Memory.Calldata.sol:DataLocationsWithStruct",
						"label": "people",
						"offset": 0,
						"slot": "0",
						"type": "t_mapping(t_uint256,t_struct(Person)85_storage)"
					}
				],
				"types": {
					"t_mapping(t_uint256,t_struct(Person)85_storage)": {
						"encoding": "mapping",
						"key": "t_uint256",
						"label": "mapping(uint256 => struct DataLocationsWithStruct.Person)",
						"numberOfBytes": "32",
						"value": "t_struct(Person)85_storage"
					},
					"t_string_storage": {
						"encoding": "bytes",
						"label": "string",
						"numberOfBytes": "32"
					},
					"t_struct(Person)85_storage": {
						"encoding": "inplace",
						"label": "struct DataLocationsWithStruct.Person",
						"members": [
							{
								"astId": 82,
								"contract": "contracts/Storage.Memory.Calldata.sol:DataLocationsWithStruct",
								"label": "name",
								"offset": 0,
								"slot": "0",
								"type": "t_string_storage"
							},
							{
								"astId": 84,
								"contract": "contracts/Storage.Memory.Calldata.sol:DataLocationsWithStruct",
								"label": "age",
								"offset": 0,
								"slot": "1",
								"type": "t_uint256"
							}
						],
						"numberOfBytes": "64"
					},
					"t_uint256": {
						"encoding": "inplace",
						"label": "uint256",
						"numberOfBytes": "32"
					}
				}
			},
			"userdoc": {
				"kind": "user",
				"methods": {},
				"version": 1
			}
		}
	}
}