{
	"data": {
		"bytecode": {
			"linkReferences": {},
			"object": "608060405234801561000f575f80fd5b506103398061001d5f395ff3fe608060405234801561000f575f80fd5b5060043610610034575f3560e01c80632fbebd381461003857806355278c5b14610068575b5f80fd5b610052600480360381019061004d919061022e565b610098565b60405161005f91906102e3565b60405180910390f35b610082600480360381019061007d919061022e565b610173565b60405161008f91906102e3565b60405180910390f35b6060600a8210156100e5575f6040518060400160405280600c81526020017f6c657373207468616e203130000000000000000000000000000000000000000081525090508091505061016e565b600a821115610130575f6040518060400160405280600e81526020017f677261746572207468616e20313000000000000000000000000000000000000081525090508091505061016e565b5f6040518060400160405280600b81526020017f657175616c20746f2031300000000000000000000000000000000000000000008152509050809150505b919050565b6060600a8211156101b9576040518060400160405280601581526020017f477261746572206f7220657175616c20746f20313000000000000000000000008152506101f0565b6040518060400160405280601381526020017f4c657373206f7220657175616c20746f203130000000000000000000000000008152505b9050919050565b5f80fd5b5f819050919050565b61020d816101fb565b8114610217575f80fd5b50565b5f8135905061022881610204565b92915050565b5f60208284031215610243576102426101f7565b5b5f6102508482850161021a565b91505092915050565b5f81519050919050565b5f82825260208201905092915050565b5f5b83811015610290578082015181840152602081019050610275565b5f8484015250505050565b5f601f19601f8301169050919050565b5f6102b582610259565b6102bf8185610263565b93506102cf818560208601610273565b6102d88161029b565b840191505092915050565b5f6020820190508181035f8301526102fb81846102ab565b90509291505056fea264697066735822122058fee29cee079f7105ac81731303f8d67abdfbb29e487a3c62ae0fbd35bd4c4164736f6c63430008180033",
			"opcodes": "PUSH1 0x80 PUSH1 0x40 MSTORE CALLVALUE DUP1 ISZERO PUSH2 0xF JUMPI PUSH0 DUP1 REVERT JUMPDEST POP PUSH2 0x339 DUP1 PUSH2 0x1D PUSH0 CODECOPY PUSH0 RETURN INVALID PUSH1 0x80 PUSH1 0x40 MSTORE CALLVALUE DUP1 ISZERO PUSH2 0xF JUMPI PUSH0 DUP1 REVERT JUMPDEST POP PUSH1 0x4 CALLDATASIZE LT PUSH2 0x34 JUMPI PUSH0 CALLDATALOAD PUSH1 0xE0 SHR DUP1 PUSH4 0x2FBEBD38 EQ PUSH2 0x38 JUMPI DUP1 PUSH4 0x55278C5B EQ PUSH2 0x68 JUMPI JUMPDEST PUSH0 DUP1 REVERT JUMPDEST PUSH2 0x52 PUSH1 0x4 DUP1 CALLDATASIZE SUB DUP2 ADD SWAP1 PUSH2 0x4D SWAP2 SWAP1 PUSH2 0x22E JUMP JUMPDEST PUSH2 0x98 JUMP JUMPDEST PUSH1 0x40 MLOAD PUSH2 0x5F SWAP2 SWAP1 PUSH2 0x2E3 JUMP JUMPDEST PUSH1 0x40 MLOAD DUP1 SWAP2 SUB SWAP1 RETURN JUMPDEST PUSH2 0x82 PUSH1 0x4 DUP1 CALLDATASIZE SUB DUP2 ADD SWAP1 PUSH2 0x7D SWAP2 SWAP1 PUSH2 0x22E JUMP JUMPDEST PUSH2 0x173 JUMP JUMPDEST PUSH1 0x40 MLOAD PUSH2 0x8F SWAP2 SWAP1 PUSH2 0x2E3 JUMP JUMPDEST PUSH1 0x40 MLOAD DUP1 SWAP2 SUB SWAP1 RETURN JUMPDEST PUSH1 0x60 PUSH1 0xA DUP3 LT ISZERO PUSH2 0xE5 JUMPI PUSH0 PUSH1 0x40 MLOAD DUP1 PUSH1 0x40 ADD PUSH1 0x40 MSTORE DUP1 PUSH1 0xC DUP2 MSTORE PUSH1 0x20 ADD PUSH32 0x6C657373207468616E2031300000000000000000000000000000000000000000 DUP2 MSTORE POP SWAP1 POP DUP1 SWAP2 POP POP PUSH2 0x16E JUMP JUMPDEST PUSH1 0xA DUP3 GT ISZERO PUSH2 0x130 JUMPI PUSH0 PUSH1 0x40 MLOAD DUP1 PUSH1 0x40 ADD PUSH1 0x40 MSTORE DUP1 PUSH1 0xE DUP2 MSTORE PUSH1 0x20 ADD PUSH32 0x677261746572207468616E203130000000000000000000000000000000000000 DUP2 MSTORE POP SWAP1 POP DUP1 SWAP2 POP POP PUSH2 0x16E JUMP JUMPDEST PUSH0 PUSH1 0x40 MLOAD DUP1 PUSH1 0x40 ADD PUSH1 0x40 MSTORE DUP1 PUSH1 0xB DUP2 MSTORE PUSH1 0x20 ADD PUSH32 0x657175616C20746F203130000000000000000000000000000000000000000000 DUP2 MSTORE POP SWAP1 POP DUP1 SWAP2 POP POP JUMPDEST SWAP2 SWAP1 POP JUMP JUMPDEST PUSH1 0x60 PUSH1 0xA DUP3 GT ISZERO PUSH2 0x1B9 JUMPI PUSH1 0x40 MLOAD DUP1 PUSH1 0x40 ADD PUSH1 0x40 MSTORE DUP1 PUSH1 0x15 DUP2 MSTORE PUSH1 0x20 ADD PUSH32 0x477261746572206F7220657175616C20746F2031300000000000000000000000 DUP2 MSTORE POP PUSH2 0x1F0 JUMP JUMPDEST PUSH1 0x40 MLOAD DUP1 PUSH1 0x40 ADD PUSH1 0x40 MSTORE DUP1 PUSH1 0x13 DUP2 MSTORE PUSH1 0x20 ADD PUSH32 0x4C657373206F7220657175616C20746F20313000000000000000000000000000 DUP2 MSTORE POP JUMPDEST SWAP1 POP SWAP2 SWAP1 POP JUMP JUMPDEST PUSH0 DUP1 REVERT JUMPDEST PUSH0 DUP2 SWAP1 POP SWAP2 SWAP1 POP JUMP JUMPDEST PUSH2 0x20D DUP2 PUSH2 0x1FB JUMP JUMPDEST DUP2 EQ PUSH2 0x217 JUMPI PUSH0 DUP1 REVERT JUMPDEST POP JUMP JUMPDEST PUSH0 DUP2 CALLDATALOAD SWAP1 POP PUSH2 0x228 DUP2 PUSH2 0x204 JUMP JUMPDEST SWAP3 SWAP2 POP POP JUMP JUMPDEST PUSH0 PUSH1 0x20 DUP3 DUP5 SUB SLT ISZERO PUSH2 0x243 JUMPI PUSH2 0x242 PUSH2 0x1F7 JUMP JUMPDEST JUMPDEST PUSH0 PUSH2 0x250 DUP5 DUP3 DUP6 ADD PUSH2 0x21A JUMP JUMPDEST SWAP2 POP POP SWAP3 SWAP2 POP POP JUMP JUMPDEST PUSH0 DUP2 MLOAD SWAP1 POP SWAP2 SWAP1 POP JUMP JUMPDEST PUSH0 DUP3 DUP3 MSTORE PUSH1 0x20 DUP3 ADD SWAP1 POP SWAP3 SWAP2 POP POP JUMP JUMPDEST PUSH0 JUMPDEST DUP4 DUP2 LT ISZERO PUSH2 0x290 JUMPI DUP1 DUP3 ADD MLOAD DUP2 DUP5 ADD MSTORE PUSH1 0x20 DUP2 ADD SWAP1 POP PUSH2 0x275 JUMP JUMPDEST PUSH0 DUP5 DUP5 ADD MSTORE POP POP POP POP JUMP JUMPDEST PUSH0 PUSH1 0x1F NOT PUSH1 0x1F DUP4 ADD AND SWAP1 POP SWAP2 SWAP1 POP JUMP JUMPDEST PUSH0 PUSH2 0x2B5 DUP3 PUSH2 0x259 JUMP JUMPDEST PUSH2 0x2BF DUP2 DUP6 PUSH2 0x263 JUMP JUMPDEST SWAP4 POP PUSH2 0x2CF DUP2 DUP6 PUSH1 0x20 DUP7 ADD PUSH2 0x273 JUMP JUMPDEST PUSH2 0x2D8 DUP2 PUSH2 0x29B JUMP JUMPDEST DUP5 ADD SWAP2 POP POP SWAP3 SWAP2 POP POP JUMP JUMPDEST PUSH0 PUSH1 0x20 DUP3 ADD SWAP1 POP DUP2 DUP2 SUB PUSH0 DUP4 ADD MSTORE PUSH2 0x2FB DUP2 DUP5 PUSH2 0x2AB JUMP JUMPDEST SWAP1 POP SWAP3 SWAP2 POP POP JUMP INVALID LOG2 PUSH5 0x6970667358 0x22 SLT KECCAK256 PC INVALID 0xE2 SWAP13 0xEE SMOD SWAP16 PUSH18 0x5AC81731303F8D67ABDFBB29E487A3C62AE 0xF 0xBD CALLDATALOAD 0xBD 0x4C COINBASE PUSH5 0x736F6C6343 STOP ADDMOD XOR STOP CALLER "
		},
		"gasEstimates": {
			"creation": {
				"codeDepositCost": "165000",
				"executionCost": "206",
				"totalCost": "165206"
			},
			"external": {
				"foo(uint256)": "infinite",
				"ternary(uint256)": "infinite"
			}
		},
		"methodIdentifiers": {
			"foo(uint256)": "2fbebd38",
			"ternary(uint256)": "55278c5b"
		}
	},
	"abi": [
		{
			"inputs": [
				{
					"internalType": "uint256",
					"name": "x",
					"type": "uint256"
				}
			],
			"name": "foo",
			"outputs": [
				{
					"internalType": "string",
					"name": "",
					"type": "string"
				}
			],
			"stateMutability": "pure",
			"type": "function"
		},
		{
			"inputs": [
				{
					"internalType": "uint256",
					"name": "_x",
					"type": "uint256"
				}
			],
			"name": "ternary",
			"outputs": [
				{
					"internalType": "string",
					"name": "",
					"type": "string"
				}
			],
			"stateMutability": "pure",
			"type": "function"
		}
	]
}